{
  "contractName": "TokenPollFactory",
  "abi": [
    {
      "inputs": [],
      "payable": false,
      "stateMutability": "nonpayable",
      "type": "constructor"
    },
    {
      "anonymous": false,
      "inputs": [
        {
          "indexed": true,
          "name": "sender",
          "type": "address"
        },
        {
          "indexed": false,
          "name": "tokenPoll",
          "type": "address"
        }
      ],
      "name": "TokenPollCreated",
      "type": "event"
    },
    {
      "constant": false,
      "inputs": [],
      "name": "createTokenPoll",
      "outputs": [],
      "payable": false,
      "stateMutability": "nonpayable",
      "type": "function"
    }
  ],
  "bytecode": "0x6060604052341561000f57600080fd5b610f428061001e6000396000f300606060405260043610610041576000357c0100000000000000000000000000000000000000000000000000000000900463ffffffff168063f3a03d2814610046575b600080fd5b341561005157600080fd5b61005961005b565b005b600033610066610131565b808273ffffffffffffffffffffffffffffffffffffffff1673ffffffffffffffffffffffffffffffffffffffff168152602001915050604051809103906000f08015156100b257600080fd5b90503373ffffffffffffffffffffffffffffffffffffffff167f7564a76079f912cbe2d4cab94216340ff1c978c197ef4b5784d669a00dcb0ed582604051808273ffffffffffffffffffffffffffffffffffffffff1673ffffffffffffffffffffffffffffffffffffffff16815260200191505060405180910390a250565b604051610dd5806101428339019056006060604052341561000f57600080fd5b604051602080610dd58339810160405280805190602001909190505080600160006101000a81548173ffffffffffffffffffffffffffffffffffffffff021916908373ffffffffffffffffffffffffffffffffffffffff16021790555050610d598061007c6000396000f300606060405260043610610112576000357c0100000000000000000000000000000000000000000000000000000000900463ffffffff16806301541fe31461012c57806307973ccf146101555780631865c57d1461017e57806324e3eb64146101b55780632790c642146101de57806329a870231461020757806332f3e20d1461025457806355a373d61461026957806360f8dab7146102be578063677342ce146102d3578063764912ef1461030a5780637ace48e714610333578063adf4a14414610358578063aec2ccae14610362578063b5b47f42146103b3578063e2fdcc17146103dc578063eab6d71614610431578063eb990c591461047e578063f5f3d4f7146104e8578063fb286c6514610511575b341561011d57600080fd5b6000151561012a57600080fd5b005b341561013757600080fd5b61013f61053a565b6040518082815260200191505060405180910390f35b341561016057600080fd5b610168610540565b6040518082815260200191505060405180910390f35b341561018957600080fd5b610191610546565b604051808260078111156101a157fe5b60ff16815260200191505060405180910390f35b34156101c057600080fd5b6101c86105d3565b6040518082815260200191505060405180910390f35b34156101e957600080fd5b6101f16105d9565b6040518082815260200191505060405180910390f35b341561021257600080fd5b61023e600480803573ffffffffffffffffffffffffffffffffffffffff169060200190919050506105df565b6040518082815260200191505060405180910390f35b341561025f57600080fd5b6102676105f7565b005b341561027457600080fd5b61027c6107d5565b604051808273ffffffffffffffffffffffffffffffffffffffff1673ffffffffffffffffffffffffffffffffffffffff16815260200191505060405180910390f35b34156102c957600080fd5b6102d16107fb565b005b34156102de57600080fd5b6102f460048080359060200190919050506108e9565b6040518082815260200191505060405180910390f35b341561031557600080fd5b61031d61093a565b6040518082815260200191505060405180910390f35b341561033e57600080fd5b61035660048080351515906020019091905050610940565b005b610360610a28565b005b341561036d57600080fd5b610399600480803573ffffffffffffffffffffffffffffffffffffffff16906020019091905050610af9565b604051808215151515815260200191505060405180910390f35b34156103be57600080fd5b6103c6610b19565b6040518082815260200191505060405180910390f35b34156103e757600080fd5b6103ef610b1f565b604051808273ffffffffffffffffffffffffffffffffffffffff1673ffffffffffffffffffffffffffffffffffffffff16815260200191505060405180910390f35b341561043c57600080fd5b610468600480803573ffffffffffffffffffffffffffffffffffffffff16906020019091905050610b45565b6040518082815260200191505060405180910390f35b341561048957600080fd5b6104e6600480803573ffffffffffffffffffffffffffffffffffffffff1690602001909190803573ffffffffffffffffffffffffffffffffffffffff16906020019091908035906020019091908035906020019091905050610b95565b005b34156104f357600080fd5b6104fb610cdd565b6040518082815260200191505060405180910390f35b341561051c57600080fd5b610524610ce3565b6040518082815260200191505060405180910390f35b60035481565b60075481565b6000600160169054906101000a900460ff16151561056757600090506105d0565b60055442101561057a57600190506105d0565b4260055410801561058c575060065442105b1561059a57600290506105d0565b600160149054906101000a900460ff16156105b857600790506105d0565b6006544211156105cb57600390506105d0565b600690505b90565b60065481565b60055481565b60006020528060005260406000206000915090505481565b6000600280600781111561060757fe5b61060f610546565b600781111561061a57fe5b14151561062657600080fd5b60008060003373ffffffffffffffffffffffffffffffffffffffff1673ffffffffffffffffffffffffffffffffffffffff1681526020019081526020016000205414151561067357600080fd5b600260009054906101000a900473ffffffffffffffffffffffffffffffffffffffff1673ffffffffffffffffffffffffffffffffffffffff166370a08231336000604051602001526040518263ffffffff167c0100000000000000000000000000000000000000000000000000000000028152600401808273ffffffffffffffffffffffffffffffffffffffff1673ffffffffffffffffffffffffffffffffffffffff168152602001915050602060405180830381600087803b151561073857600080fd5b6102c65a03f1151561074957600080fd5b505050604051805190509150816000803373ffffffffffffffffffffffffffffffffffffffff1673ffffffffffffffffffffffffffffffffffffffff168152602001908152602001600020819055506107a133610b45565b6009600082825401925050819055508160086000828254019250508190555060016007600082825401925050819055505050565b600260009054906101000a900473ffffffffffffffffffffffffffffffffffffffff1681565b6000806000600780600781111561080e57fe5b610816610546565b600781111561082157fe5b14151561082d57600080fd5b3393506000808573ffffffffffffffffffffffffffffffffffffffff1673ffffffffffffffffffffffffffffffffffffffff1681526020019081526020016000205492506000831415151561088157600080fd5b60008060008673ffffffffffffffffffffffffffffffffffffffff1673ffffffffffffffffffffffffffffffffffffffff1681526020019081526020016000208190555060085483600354028115156108d657fe5b0491506108e38483610ce9565b50505050565b60008060006002600185018115156108fd57fe5b0491508390505b8082101561093057819050600282838681151561091d57fe5b040181151561092857fe5b049150610904565b8092505050919050565b60085481565b60001515600a60003373ffffffffffffffffffffffffffffffffffffffff1673ffffffffffffffffffffffffffffffffffffffff16815260200190815260200160002060009054906101000a900460ff16151514151561099f57600080fd5b6001600a60003373ffffffffffffffffffffffffffffffffffffffff1673ffffffffffffffffffffffffffffffffffffffff16815260200190815260200160002060006101000a81548160ff0219169083151502179055508015610a13576001600b60008282540192505081905550610a25565b6001600c600082825401925050819055505b50565b6005806007811115610a3657fe5b610a3e610546565b6007811115610a4957fe5b141515610a5557600080fd5b600460009054906101000a900473ffffffffffffffffffffffffffffffffffffffff168073ffffffffffffffffffffffffffffffffffffffff16600460009054906101000a900473ffffffffffffffffffffffffffffffffffffffff1673ffffffffffffffffffffffffffffffffffffffff16141515610ad457600080fd5b3460038190555060018060146101000a81548160ff0219169083151502179055505050565b600a6020528060005260406000206000915054906101000a900460ff1681565b600c5481565b600460009054906101000a900473ffffffffffffffffffffffffffffffffffffffff1681565b6000610b8e6000808473ffffffffffffffffffffffffffffffffffffffff1673ffffffffffffffffffffffffffffffffffffffff168152602001908152602001600020546108e9565b9050919050565b6000806007811115610ba357fe5b610bab610546565b6007811115610bb657fe5b141515610bc257600080fd5b600160009054906101000a900473ffffffffffffffffffffffffffffffffffffffff1673ffffffffffffffffffffffffffffffffffffffff163373ffffffffffffffffffffffffffffffffffffffff16141515610c1e57600080fd5b4283111515610c2c57600080fd5b60018060166101000a81548160ff02191690831515021790555084600260006101000a81548173ffffffffffffffffffffffffffffffffffffffff021916908373ffffffffffffffffffffffffffffffffffffffff160217905550826005819055508160068190555083600460006101000a81548173ffffffffffffffffffffffffffffffffffffffff021916908373ffffffffffffffffffffffffffffffffffffffff1602179055505050505050565b60095481565b600b5481565b8173ffffffffffffffffffffffffffffffffffffffff166108fc829081150290604051600060405180830381858888f193505050501515610d2957600080fd5b50505600a165627a7a723058208be713816b67cb7d677ee3aec61cb2e9ec1b5ac7f80f5ed51d8ed044eba6d64b0029a165627a7a7230582022174ca14fb7b202c10943233b072ce145a3f0d7675595a8ec5d694de04100990029",
  "source": "pragma solidity ^0.4.15;\n\nimport \"./TokenPoll.sol\";\n\n// Voting is quadratic\ncontract TokenPollFactory {\n  event TokenPollCreated(address indexed sender, address tokenPoll);\n\n  function TokenPollFactory () {}\n\n  function createTokenPoll() {\n    TokenPoll tp = new TokenPoll(msg.sender);\n    TokenPollCreated(msg.sender, tp);\n  }\n}\n",
  "sourcePath": "/home/nick/workspace/dapps/TokenPoll/contracts/TokenPollFactory.sol",
  "compiler": {
    "name": "solc",
    "version": "0.4.19+commit.c4cbbb05.Emscripten.clang"
  },
  "schemaVersion": "2.0.0",
  "updatedAt": "2018-04-09T17:01:02.414Z"
}