{
  "contractName": "TokenPoll",
  "abi": [
    {
      "constant": true,
      "inputs": [],
      "name": "totalRefund",
      "outputs": [
        {
          "name": "",
          "type": "uint256"
        }
      ],
      "payable": false,
      "stateMutability": "view",
      "type": "function"
    },
    {
      "constant": true,
      "inputs": [],
      "name": "userCount",
      "outputs": [
        {
          "name": "",
          "type": "uint256"
        }
      ],
      "payable": false,
      "stateMutability": "view",
      "type": "function"
    },
    {
      "constant": true,
      "inputs": [],
      "name": "allocEndTime",
      "outputs": [
        {
          "name": "",
          "type": "uint256"
        }
      ],
      "payable": false,
      "stateMutability": "view",
      "type": "function"
    },
    {
      "constant": true,
      "inputs": [],
      "name": "allocStartTime",
      "outputs": [
        {
          "name": "",
          "type": "uint256"
        }
      ],
      "payable": false,
      "stateMutability": "view",
      "type": "function"
    },
    {
      "constant": true,
      "inputs": [
        {
          "name": "",
          "type": "address"
        }
      ],
      "name": "userTokenBalance",
      "outputs": [
        {
          "name": "",
          "type": "uint256"
        }
      ],
      "payable": false,
      "stateMutability": "view",
      "type": "function"
    },
    {
      "constant": true,
      "inputs": [],
      "name": "dailyLimit",
      "outputs": [
        {
          "name": "",
          "type": "uint256"
        }
      ],
      "payable": false,
      "stateMutability": "view",
      "type": "function"
    },
    {
      "constant": true,
      "inputs": [],
      "name": "totalTokenCount",
      "outputs": [
        {
          "name": "",
          "type": "uint256"
        }
      ],
      "payable": false,
      "stateMutability": "view",
      "type": "function"
    },
    {
      "constant": true,
      "inputs": [],
      "name": "stableCoin",
      "outputs": [
        {
          "name": "",
          "type": "address"
        }
      ],
      "payable": false,
      "stateMutability": "view",
      "type": "function"
    },
    {
      "constant": true,
      "inputs": [
        {
          "name": "",
          "type": "address"
        }
      ],
      "name": "voted",
      "outputs": [
        {
          "name": "",
          "type": "bool"
        }
      ],
      "payable": false,
      "stateMutability": "view",
      "type": "function"
    },
    {
      "constant": true,
      "inputs": [],
      "name": "noVotes",
      "outputs": [
        {
          "name": "",
          "type": "uint256"
        }
      ],
      "payable": false,
      "stateMutability": "view",
      "type": "function"
    },
    {
      "constant": true,
      "inputs": [],
      "name": "escrow",
      "outputs": [
        {
          "name": "",
          "type": "address"
        }
      ],
      "payable": false,
      "stateMutability": "view",
      "type": "function"
    },
    {
      "constant": true,
      "inputs": [],
      "name": "icoCoin",
      "outputs": [
        {
          "name": "",
          "type": "address"
        }
      ],
      "payable": false,
      "stateMutability": "view",
      "type": "function"
    },
    {
      "constant": true,
      "inputs": [],
      "name": "totalVotePower",
      "outputs": [
        {
          "name": "",
          "type": "uint256"
        }
      ],
      "payable": false,
      "stateMutability": "view",
      "type": "function"
    },
    {
      "constant": true,
      "inputs": [],
      "name": "yesVotes",
      "outputs": [
        {
          "name": "",
          "type": "uint256"
        }
      ],
      "payable": false,
      "stateMutability": "view",
      "type": "function"
    },
    {
      "inputs": [],
      "payable": false,
      "stateMutability": "nonpayable",
      "type": "constructor"
    },
    {
      "payable": false,
      "stateMutability": "nonpayable",
      "type": "fallback"
    },
    {
      "anonymous": false,
      "inputs": [
        {
          "indexed": true,
          "name": "voter",
          "type": "address"
        },
        {
          "indexed": false,
          "name": "vote",
          "type": "bool"
        }
      ],
      "name": "Vote",
      "type": "event"
    },
    {
      "anonymous": false,
      "inputs": [
        {
          "indexed": true,
          "name": "previousOwner",
          "type": "address"
        },
        {
          "indexed": true,
          "name": "newOwner",
          "type": "address"
        }
      ],
      "name": "OwnershipTransferred",
      "type": "event"
    },
    {
      "constant": false,
      "inputs": [
        {
          "name": "_icoToken",
          "type": "address"
        },
        {
          "name": "_stableCoin",
          "type": "address"
        },
        {
          "name": "_escrow",
          "type": "address"
        },
        {
          "name": "_allocStartTime",
          "type": "uint256"
        },
        {
          "name": "_allocEndTime",
          "type": "uint256"
        },
        {
          "name": "_dailyLimit",
          "type": "uint256"
        }
      ],
      "name": "initialize",
      "outputs": [],
      "payable": false,
      "stateMutability": "nonpayable",
      "type": "function"
    },
    {
      "constant": false,
      "inputs": [
        {
          "name": "to",
          "type": "address"
        },
        {
          "name": "value",
          "type": "uint256"
        }
      ],
      "name": "withdrawTokens",
      "outputs": [],
      "payable": false,
      "stateMutability": "nonpayable",
      "type": "function"
    },
    {
      "constant": true,
      "inputs": [],
      "name": "getMaxWithdraw",
      "outputs": [
        {
          "name": "",
          "type": "uint256"
        }
      ],
      "payable": false,
      "stateMutability": "view",
      "type": "function"
    },
    {
      "constant": true,
      "inputs": [],
      "name": "getOwner",
      "outputs": [
        {
          "name": "",
          "type": "address"
        }
      ],
      "payable": false,
      "stateMutability": "view",
      "type": "function"
    },
    {
      "constant": false,
      "inputs": [
        {
          "name": "newOwner",
          "type": "address"
        }
      ],
      "name": "transferOwnership",
      "outputs": [],
      "payable": false,
      "stateMutability": "nonpayable",
      "type": "function"
    },
    {
      "constant": false,
      "inputs": [],
      "name": "allocVotes",
      "outputs": [],
      "payable": false,
      "stateMutability": "nonpayable",
      "type": "function"
    },
    {
      "constant": false,
      "inputs": [
        {
          "name": "vote",
          "type": "bool"
        }
      ],
      "name": "castVote",
      "outputs": [],
      "payable": false,
      "stateMutability": "nonpayable",
      "type": "function"
    },
    {
      "constant": false,
      "inputs": [],
      "name": "userRefund",
      "outputs": [],
      "payable": false,
      "stateMutability": "nonpayable",
      "type": "function"
    },
    {
      "constant": false,
      "inputs": [],
      "name": "startRefund",
      "outputs": [],
      "payable": true,
      "stateMutability": "payable",
      "type": "function"
    },
    {
      "constant": true,
      "inputs": [],
      "name": "getState",
      "outputs": [
        {
          "name": "",
          "type": "uint8"
        }
      ],
      "payable": false,
      "stateMutability": "view",
      "type": "function"
    },
    {
      "constant": true,
      "inputs": [
        {
          "name": "user",
          "type": "address"
        }
      ],
      "name": "getUserVotePower",
      "outputs": [
        {
          "name": "",
          "type": "uint256"
        }
      ],
      "payable": false,
      "stateMutability": "view",
      "type": "function"
    },
    {
      "constant": true,
      "inputs": [
        {
          "name": "x",
          "type": "uint256"
        }
      ],
      "name": "sqrt",
      "outputs": [
        {
          "name": "",
          "type": "uint256"
        }
      ],
      "payable": false,
      "stateMutability": "pure",
      "type": "function"
    }
  ],
  "bytecode": "0x6060604052341561000f57600080fd5b33600360006101000a81548173ffffffffffffffffffffffffffffffffffffffff021916908373ffffffffffffffffffffffffffffffffffffffff1602179055506117218061005f6000396000f300606060405260043610610154576000357c0100000000000000000000000000000000000000000000000000000000900463ffffffff16806301541fe31461016e57806306b091f91461019757806307973ccf146101d95780631865c57d1461020257806324e3eb64146102395780632790c6421461026257806329a870231461028b57806332f3e20d146102d85780633f571453146102ed57806360f8dab714610316578063677342ce1461032b57806367eeba0c14610362578063728cdbca1461038b578063764912ef1461041d5780637ace48e714610446578063893d20e81461046b578063992642e5146104c0578063adf4a14414610515578063aec2ccae1461051f578063b5b47f4214610570578063e2fdcc1714610599578063eab6d716146105ee578063efd6c0eb1461063b578063f2fde38b14610690578063f5f3d4f7146106c9578063fb286c65146106f2575b341561015f57600080fd5b6000151561016c57600080fd5b005b341561017957600080fd5b61018161071b565b6040518082815260200191505060405180910390f35b34156101a257600080fd5b6101d7600480803573ffffffffffffffffffffffffffffffffffffffff16906020019091908035906020019091905050610721565b005b34156101e457600080fd5b6101ec6107d1565b6040518082815260200191505060405180910390f35b341561020d57600080fd5b6102156107d7565b6040518082600781111561022557fe5b60ff16815260200191505060405180910390f35b341561024457600080fd5b61024c610864565b6040518082815260200191505060405180910390f35b341561026d57600080fd5b61027561086a565b6040518082815260200191505060405180910390f35b341561029657600080fd5b6102c2600480803573ffffffffffffffffffffffffffffffffffffffff16906020019091905050610870565b6040518082815260200191505060405180910390f35b34156102e357600080fd5b6102eb610888565b005b34156102f857600080fd5b610300610a68565b6040518082815260200191505060405180910390f35b341561032157600080fd5b610329610a77565b005b341561033657600080fd5b61034c6004808035906020019091905050610bad565b6040518082815260200191505060405180910390f35b341561036d57600080fd5b610375610bfe565b6040518082815260200191505060405180910390f35b341561039657600080fd5b61041b600480803573ffffffffffffffffffffffffffffffffffffffff1690602001909190803573ffffffffffffffffffffffffffffffffffffffff1690602001909190803573ffffffffffffffffffffffffffffffffffffffff16906020019091908035906020019091908035906020019091908035906020019091905050610c0a565b005b341561042857600080fd5b610430610d9f565b6040518082815260200191505060405180910390f35b341561045157600080fd5b61046960048080351515906020019091905050610da5565b005b341561047657600080fd5b61047e610edf565b604051808273ffffffffffffffffffffffffffffffffffffffff1673ffffffffffffffffffffffffffffffffffffffff16815260200191505060405180910390f35b34156104cb57600080fd5b6104d3610eee565b604051808273ffffffffffffffffffffffffffffffffffffffff1673ffffffffffffffffffffffffffffffffffffffff16815260200191505060405180910390f35b61051d610f14565b005b341561052a57600080fd5b610556600480803573ffffffffffffffffffffffffffffffffffffffff16906020019091905050611071565b604051808215151515815260200191505060405180910390f35b341561057b57600080fd5b610583611091565b6040518082815260200191505060405180910390f35b34156105a457600080fd5b6105ac611097565b604051808273ffffffffffffffffffffffffffffffffffffffff1673ffffffffffffffffffffffffffffffffffffffff16815260200191505060405180910390f35b34156105f957600080fd5b610625600480803573ffffffffffffffffffffffffffffffffffffffff169060200190919050506110bd565b6040518082815260200191505060405180910390f35b341561064657600080fd5b61064e61110e565b604051808273ffffffffffffffffffffffffffffffffffffffff1673ffffffffffffffffffffffffffffffffffffffff16815260200191505060405180910390f35b341561069b57600080fd5b6106c7600480803573ffffffffffffffffffffffffffffffffffffffff16906020019091905050611134565b005b34156106d457600080fd5b6106dc611140565b6040518082815260200191505060405180910390f35b34156106fd57600080fd5b610705611146565b6040518082815260200191505060405180910390f35b60075481565b600360009054906101000a900473ffffffffffffffffffffffffffffffffffffffff1673ffffffffffffffffffffffffffffffffffffffff163373ffffffffffffffffffffffffffffffffffffffff1614151561077d57600080fd5b6107cd600660009054906101000a900473ffffffffffffffffffffffffffffffffffffffff16600860009054906101000a900473ffffffffffffffffffffffffffffffffffffffff16848461114c565b5050565b600b5481565b6000600560029054906101000a900460ff1615156107f85760009050610861565b60095442101561080b5760019050610861565b4260095410801561081d5750600a5442105b1561082b5760029050610861565b600560009054906101000a900460ff16156108495760079050610861565b600a5442111561085c5760039050610861565b600690505b90565b600a5481565b60095481565b60046020528060005260406000206000915090505481565b6000600280600781111561089857fe5b6108a06107d7565b60078111156108ab57fe5b1415156108b757600080fd5b6000600460003373ffffffffffffffffffffffffffffffffffffffff1673ffffffffffffffffffffffffffffffffffffffff1681526020019081526020016000205414151561090557600080fd5b600560039054906101000a900473ffffffffffffffffffffffffffffffffffffffff1673ffffffffffffffffffffffffffffffffffffffff166370a08231336000604051602001526040518263ffffffff167c0100000000000000000000000000000000000000000000000000000000028152600401808273ffffffffffffffffffffffffffffffffffffffff1673ffffffffffffffffffffffffffffffffffffffff168152602001915050602060405180830381600087803b15156109ca57600080fd5b6102c65a03f115156109db57600080fd5b50505060405180519050915081600460003373ffffffffffffffffffffffffffffffffffffffff1673ffffffffffffffffffffffffffffffffffffffff16815260200190815260200160002081905550610a34336110bd565b600d6000828254019250508190555081600c600082825401925050819055506001600b600082825401925050819055505050565b6000610a7261147c565b905090565b60008060006007806007811115610a8a57fe5b610a926107d7565b6007811115610a9d57fe5b141515610aa957600080fd5b339350600460008573ffffffffffffffffffffffffffffffffffffffff1673ffffffffffffffffffffffffffffffffffffffff16815260200190815260200160002054925060008314151515610afe57600080fd5b6000600460008673ffffffffffffffffffffffffffffffffffffffff1673ffffffffffffffffffffffffffffffffffffffff16815260200190815260200160002081905550600c548360075402811515610b5457fe5b049150610ba7600660009054906101000a900473ffffffffffffffffffffffffffffffffffffffff16600860009054906101000a900473ffffffffffffffffffffffffffffffffffffffff16868561114c565b50505050565b6000806000600260018501811515610bc157fe5b0491508390505b80821015610bf4578190506002828386811515610be157fe5b0401811515610bec57fe5b049150610bc8565b8092505050919050565b60008060000154905090565b6000806007811115610c1857fe5b610c206107d7565b6007811115610c2b57fe5b141515610c3757600080fd5b600360009054906101000a900473ffffffffffffffffffffffffffffffffffffffff1673ffffffffffffffffffffffffffffffffffffffff163373ffffffffffffffffffffffffffffffffffffffff16141515610c9357600080fd5b4284111515610ca157600080fd5b6001600560026101000a81548160ff02191690831515021790555086600560036101000a81548173ffffffffffffffffffffffffffffffffffffffff021916908373ffffffffffffffffffffffffffffffffffffffff16021790555085600660006101000a81548173ffffffffffffffffffffffffffffffffffffffff021916908373ffffffffffffffffffffffffffffffffffffffff1602179055508360098190555082600a8190555084600860006101000a81548173ffffffffffffffffffffffffffffffffffffffff021916908373ffffffffffffffffffffffffffffffffffffffff160217905550610d96826114da565b50505050505050565b600c5481565b60001515600e60003373ffffffffffffffffffffffffffffffffffffffff1673ffffffffffffffffffffffffffffffffffffffff16815260200190815260200160002060009054906101000a900460ff161515141515610e0457600080fd5b6001600e60003373ffffffffffffffffffffffffffffffffffffffff1673ffffffffffffffffffffffffffffffffffffffff16815260200190815260200160002060006101000a81548160ff0219169083151502179055508015610e78576001600f60008282540192505081905550610e8a565b60016010600082825401925050819055505b3373ffffffffffffffffffffffffffffffffffffffff167fa635d31e67484fd1d93ba01ab0ef882e4440a78aa40d0e2771e8a2aace45986982604051808215151515815260200191505060405180910390a250565b6000610ee96114e6565b905090565b600660009054906101000a900473ffffffffffffffffffffffffffffffffffffffff1681565b6005806007811115610f2257fe5b610f2a6107d7565b6007811115610f3557fe5b141515610f4157600080fd5b610f4b60006114da565b600660009054906101000a900473ffffffffffffffffffffffffffffffffffffffff1673ffffffffffffffffffffffffffffffffffffffff166370a08231600860009054906101000a900473ffffffffffffffffffffffffffffffffffffffff166000604051602001526040518263ffffffff167c0100000000000000000000000000000000000000000000000000000000028152600401808273ffffffffffffffffffffffffffffffffffffffff1673ffffffffffffffffffffffffffffffffffffffff168152602001915050602060405180830381600087803b151561103257600080fd5b6102c65a03f1151561104357600080fd5b505050604051805190506007819055506001600560006101000a81548160ff02191690831515021790555050565b600e6020528060005260406000206000915054906101000a900460ff1681565b60105481565b600860009054906101000a900473ffffffffffffffffffffffffffffffffffffffff1681565b6000611107600460008473ffffffffffffffffffffffffffffffffffffffff1673ffffffffffffffffffffffffffffffffffffffff16815260200190815260200160002054610bad565b9050919050565b600560039054906101000a900473ffffffffffffffffffffffffffffffffffffffff1681565b61113d81611510565b50565b600d5481565b600f5481565b6111546116e1565b600061115f83611668565b603860405180591061116e5750595b9080825280601f01601f19166020018201604052509150600090505b60048110156112325763a9059cbb7c010000000000000000000000000000000000000000000000000000000002816004811015156111c457fe5b1a7f01000000000000000000000000000000000000000000000000000000000000000282828151811015156111f557fe5b9060200101907effffffffffffffffffffffffffffffffffffffffffffffffffffffffffffff1916908160001a905350808060010191505061118a565b5b60188110156112c757836c01000000000000000000000000028160148110151561125957fe5b1a7f010000000000000000000000000000000000000000000000000000000000000002828281518110151561128a57fe5b9060200101907effffffffffffffffffffffffffffffffffffffffffffffffffffffffffffff1916908160001a9053508080600101915050611233565b5b60388110156113505782600102816020811015156112e257fe5b1a7f010000000000000000000000000000000000000000000000000000000000000002828281518110151561131357fe5b9060200101907effffffffffffffffffffffffffffffffffffffffffffffffffffffffffffff1916908160001a90535080806001019150506112c8565b8473ffffffffffffffffffffffffffffffffffffffff1663c6427474876000856040518463ffffffff167c0100000000000000000000000000000000000000000000000000000000028152600401808473ffffffffffffffffffffffffffffffffffffffff1673ffffffffffffffffffffffffffffffffffffffff16815260200183815260200180602001828103825283818151815260200191508051906020019080838360005b838110156114135780820151818401526020810190506113f8565b50505050905090810190601f1680156114405780820380516001836020036101000a031916815260200191505b50945050505050600060405180830381600087803b151561146057600080fd5b6102c65a03f1151561147157600080fd5b505050505050505050565b6000806000620151804281151561148f57fe5b0491506000600101548211905080156114ae57600080015492506114d5565b6000800154600060020154116114cf576000600201546000800154036114d2565b60005b92505b505090565b80600080018190555050565b6000600360009054906101000a900473ffffffffffffffffffffffffffffffffffffffff16905090565b600360009054906101000a900473ffffffffffffffffffffffffffffffffffffffff1673ffffffffffffffffffffffffffffffffffffffff163373ffffffffffffffffffffffffffffffffffffffff1614151561156c57600080fd5b600073ffffffffffffffffffffffffffffffffffffffff168173ffffffffffffffffffffffffffffffffffffffff16141515156115a857600080fd5b8073ffffffffffffffffffffffffffffffffffffffff16600360009054906101000a900473ffffffffffffffffffffffffffffffffffffffff1673ffffffffffffffffffffffffffffffffffffffff167f8be0079c531659141344cd1fd0a4f28419497f9722a3daafe3b4186f6b6457e060405160405180910390a380600360006101000a81548173ffffffffffffffffffffffffffffffffffffffff021916908373ffffffffffffffffffffffffffffffffffffffff16021790555050565b600080620151804281151561167957fe5b0491506000600101548211156116ac576000806002018190555062015180428115156116a157fe5b046000600101819055505b60006002015460008001540390508281101515156116c957600080fd5b82600060020160008282540192505081905550505050565b6020604051908101604052806000815250905600a165627a7a72305820938e34c769159078a6c055258b4e1c0db92a460859ae326d66132b162bd7a0db0029",
  "source": "pragma solidity ^0.4.15;\n\nimport \"./Ownable.sol\";\nimport \"./ERC20.sol\";\nimport \"./EscrowERC20WithdrawDailyLimit.sol\";\n\n// https://www.stellar.org/developers/guides/issuing-assets.html\n// https://www.stellar.org/blog/tokens-on-stellar/\n\n// todo change initalizier to owner\n// todo safe math\n\n// Voting is quadratic\ncontract TokenPoll is EscrowERC20WithdrawDailyLimit, Ownable {\n\n  enum State { Uninitialized    // Waits token poll is parameterized\n             , Initialized      // Waits until vote allocation. Can't have Running/Voting before votes are allocated\n             , VoteAllocation   // Token balances should be frozen and users allocate votes during this period.\n             , Running          // After vote allocation but not voting\n             , Voting           // In voting state. Outcome is either State.Running or State.VoteFailed\n             , VoteFailed       // If this happens multisig escrow initiates refund\n\n             // Outcomes  \n             , Successful       // End of polls\n             , Refunding        // Users can withdraw remaining balance\n             }\n\n  event Vote(address indexed voter, bool vote);\n\n  // =====\n  // State\n  // =====  \n\n  mapping (address => uint) public userTokenBalance; // user -> token balance\n\n  bool refundFlag;                   // keep track of state\n  bool voteFailedFlag;               // \"\n  bool initialized;                  // if contract is initialized with parameters\n\n  ERC20 public icoCoin;              // Voting power is based on token ownership count\n  ERC20 public stableCoin;           // \n\n  uint public totalRefund;           // Total size of refund\n\n  address public escrow;             // Initiate escrow to send funds to ICO wallet\n\n  uint public allocStartTime;        // Start/end of voting allocation\n  uint public allocEndTime;          // \"\n\n  uint public userCount;             // Used for keeping track of quorum\n  uint public totalTokenCount;       // Count of all tokens registered for vote\n  uint public totalVotePower;        // Total voting power of users\n  mapping (address => bool) public voted;   // User has voted\n  uint public yesVotes;              // \n  uint public noVotes;               // \n\n  // ======================\n  // Constructor & fallback\n  // ======================\n\n  function TokenPoll() Ownable() public {}\n\n  function () public { require(false); return; }\n\n  // =============\n  // ICO Functions\n  // =============\n\n  // This is used b/c order of creating contracts:\n  //    1 tokenPollAddr = TokenPoll() \n  //    2 escrowAddr    = Escrow(tokenPollAddr)\n  //    3                 TokenPoll.initialize(escrowAddress)\n  function initialize(address _icoToken, address _stableCoin, address _escrow, uint _allocStartTime, uint _allocEndTime, uint _dailyLimit) public inState(State.Uninitialized) onlyOwner {\n    require(_allocStartTime > now);\n\n    initialized = true;\n    icoCoin = ERC20(_icoToken);\n    stableCoin = ERC20(_stableCoin);\n    allocStartTime = _allocStartTime;\n    allocEndTime = _allocEndTime;\n    escrow = _escrow;\n    changeEscrowDailyLimit(_dailyLimit);\n  }\n\n  function withdrawTokens(address to, uint value) public onlyOwner { withdrawTokens(stableCoin, escrow, to, value); }\n  function getMaxWithdraw()                       public view returns (uint) { return _getMaxWithdraw(); }\n  function getOwner()                             public view returns (address) { return _getOwner(); }\n  function transferOwnership(address newOwner)    public { _transferOwnership(newOwner); } \n\n  // ===============\n  // Voter Functions\n  // ===============\n  \n  // Users\n  function allocVotes() public inState(State.VoteAllocation){\n    require(userTokenBalance[msg.sender] == 0);  // user has not allocated before\n\n    uint userTokens = icoCoin.balanceOf(msg.sender);\n\n    // State changes\n    userTokenBalance[msg.sender] = userTokens;\n    totalVotePower  += getUserVotePower(msg.sender);\n    totalTokenCount += userTokens;\n    userCount       += 1;\n  }\n\n  // todo vote window, vote params (qorem),\n  function castVote(bool vote) public {\n    require(voted[msg.sender] == false);\n\n    voted[msg.sender] = true;\n\n    if (vote)\n      yesVotes += 1;\n    else\n      noVotes += 1;\n\n    Vote(msg.sender, vote);\n  }\n\n  function userRefund() public inState(State.Refunding) {\n    address user = msg.sender;\n    uint userTokenCount = userTokenBalance[user];\n\n    // Get tokens then clear. Reentrant safe\n    require(userTokenCount != 0);\n    userTokenBalance[user] = 0;\n\n    // refund\n    uint refundSize = totalRefund * userTokenCount / totalTokenCount;\n    withdrawTokens(stableCoin, escrow, user, refundSize);\n  }\n\n  function startRefund() public payable inState(State.VoteFailed) {\n    changeEscrowDailyLimit(0);\n    totalRefund = stableCoin.balanceOf(escrow);\n    refundFlag = true;\n  }\n\n  // =======\n  // Getters\n  // =======\n\n  function getState() public view returns (State) {\n    if (!initialized)          return State.Uninitialized;\n    if (now < allocStartTime)  return State.Initialized;\n\n    if (allocStartTime < now \n        && now < allocEndTime) return State.VoteAllocation;\n\n    if (refundFlag)            return State.Refunding;\n    if (now > allocEndTime)    return State.Running;\n\n    else                       return State.Successful;\n  }\n\n  function getUserVotePower(address user) public view returns (uint) {\n    return sqrt(userTokenBalance[user]);\n  }\n\n  // y = floor(sqrt(x))\n  function sqrt(uint x) public pure returns (uint) {\n    uint z = (x + 1) / 2;\n    uint y = x;\n    \n    while (z < y) {\n      y = z;\n      z = (x / z + z) / 2;\n    }\n    \n    return y;\n  }\n  \n  // ================\n  // Modifiers\n  // ================\n\n  // modifier onlyOwner() ...\n\n  modifier inState(State s) {\n    require(getState() == s);\n    _;\n  }\n\n  modifier fromAddress(address _escrow) {\n    require(escrow == _escrow);\n    _;\n  }\n\n}\n",
  "sourcePath": "/home/nick/workspace/dapps/TokenPoll/contracts/TokenPoll.sol",
  "compiler": {
    "name": "solc",
    "version": "0.4.19+commit.c4cbbb05.Emscripten.clang"
  },
  "schemaVersion": "2.0.0",
  "updatedAt": "2018-04-24T01:26:36.196Z"
}