{
  "contractName": "TokenPollFactory",
  "abi": [
    {
      "constant": true,
      "inputs": [],
      "name": "stableCoin",
      "outputs": [
        {
          "name": "",
          "type": "address"
        }
      ],
      "payable": false,
      "stateMutability": "view",
      "type": "function"
    },
    {
      "inputs": [
        {
          "name": "_stableCoin",
          "type": "address"
        }
      ],
      "payable": false,
      "stateMutability": "nonpayable",
      "type": "constructor"
    },
    {
      "anonymous": false,
      "inputs": [
        {
          "indexed": true,
          "name": "owner",
          "type": "address"
        },
        {
          "indexed": false,
          "name": "tokenPoll",
          "type": "address"
        }
      ],
      "name": "TokenPollCreated",
      "type": "event"
    },
    {
      "constant": false,
      "inputs": [],
      "name": "createTokenPoll",
      "outputs": [
        {
          "name": "owner",
          "type": "address"
        },
        {
          "name": "tokenPoll",
          "type": "address"
        }
      ],
      "payable": false,
      "stateMutability": "nonpayable",
      "type": "function"
    }
  ],
  "bytecode": "0x608060405234801561001057600080fd5b50604051602080612be48339810180604052602081101561003057600080fd5b8101908080519060200190929190505050806000806101000a81548173ffffffffffffffffffffffffffffffffffffffff021916908373ffffffffffffffffffffffffffffffffffffffff16021790555050612b53806100916000396000f3fe608060405260043610610046576000357c010000000000000000000000000000000000000000000000000000000090048063992642e51461004b578063f3a03d28146100a2575b600080fd5b34801561005757600080fd5b5061006061012c565b604051808273ffffffffffffffffffffffffffffffffffffffff1673ffffffffffffffffffffffffffffffffffffffff16815260200191505060405180910390f35b3480156100ae57600080fd5b506100b7610151565b604051808373ffffffffffffffffffffffffffffffffffffffff1673ffffffffffffffffffffffffffffffffffffffff1681526020018273ffffffffffffffffffffffffffffffffffffffff1673ffffffffffffffffffffffffffffffffffffffff1681526020019250505060405180910390f35b6000809054906101000a900473ffffffffffffffffffffffffffffffffffffffff1681565b60008060008060009054906101000a900473ffffffffffffffffffffffffffffffffffffffff16610180610341565b808273ffffffffffffffffffffffffffffffffffffffff1673ffffffffffffffffffffffffffffffffffffffff168152602001915050604051809103906000f0801580156101d2573d6000803e3d6000fd5b5090508073ffffffffffffffffffffffffffffffffffffffff1663f2fde38b336040518263ffffffff167c0100000000000000000000000000000000000000000000000000000000028152600401808273ffffffffffffffffffffffffffffffffffffffff1673ffffffffffffffffffffffffffffffffffffffff1681526020019150506040805180830381600087803b15801561026f57600080fd5b505af1158015610283573d6000803e3d6000fd5b505050506040513d604081101561029957600080fd5b81019080805190602001909291908051906020019092919050505050503392508091508273ffffffffffffffffffffffffffffffffffffffff167f7564a76079f912cbe2d4cab94216340ff1c978c197ef4b5784d669a00dcb0ed583604051808273ffffffffffffffffffffffffffffffffffffffff1673ffffffffffffffffffffffffffffffffffffffff16815260200191505060405180910390a2828292509250509091565b6040516127d6806103528339019056fe608060405234801561001057600080fd5b506040516020806127d68339810180604052602081101561003057600080fd5b8101908080519060200190929190505050336000806101000a81548173ffffffffffffffffffffffffffffffffffffffff021916908373ffffffffffffffffffffffffffffffffffffffff16021790555080600760006101000a81548173ffffffffffffffffffffffffffffffffffffffff021916908373ffffffffffffffffffffffffffffffffffffffff1602179055506001600060166101000a81548160ff021916908315150217905550506126e9806100ed6000396000f3fe608060405260043610610209576000357c01000000000000000000000000000000000000000000000000000000009004806301541fe31461022557806307973ccf1461025057806308e6b9d21461027b5780630c525008146102a65780630ee29404146102bd5780631794bb3c1461033a5780631865c57d146103b557806324e3eb64146103ee57806325e00fe5146104195780632790c6421461044457806329a870231461046f57806332f3e20d146104d4578063331feaad146104eb578063380dd9011461050257806338a4063d1461052d5780633977b48a1461055857806355e3f0861461058357806360f8dab71461059a578063677342ce1461062b578063764912ef1461067a578063771af17b146106a55780637ace48e7146106bc578063893d20e8146107525780638979fa2e146107a95780638ee7e5971461081e578063992642e51461084d5780639a1fe879146108a45780639ba50d3c146108cf5780639c4780d814610934578063b5b47f421461095f578063ccd9e0821461098a578063cf06267714610a07578063cf56334314610a32578063d004089a14610a61578063d060be0914610a8c578063e2fdcc1714610ab7578063eab6d71614610b0e578063ee1ed84914610b73578063efd6c0eb14610ba2578063f2fde38b14610bf9578063f5f3d4f714610cbd578063f7cb789a14610ce8578063fb286c6514610d13575b34801561021557600080fd5b506000151561022357600080fd5b005b34801561023157600080fd5b5061023a610d3e565b6040518082815260200191505060405180910390f35b34801561025c57600080fd5b50610265610d44565b6040518082815260200191505060405180910390f35b34801561028757600080fd5b50610290610d4a565b6040518082815260200191505060405180910390f35b3480156102b257600080fd5b506102bb610d4f565b005b3480156102c957600080fd5b50610320600480360360608110156102e057600080fd5b81019080803573ffffffffffffffffffffffffffffffffffffffff1690602001909291908035906020019092919080359060200190929190505050610d61565b604051808215151515815260200191505060405180910390f35b34801561034657600080fd5b506103b36004803603606081101561035d57600080fd5b81019080803573ffffffffffffffffffffffffffffffffffffffff169060200190929190803573ffffffffffffffffffffffffffffffffffffffff16906020019092919080359060200190929190505050610d9d565b005b3480156103c157600080fd5b506103ca610f20565b604051808260078111156103da57fe5b60ff16815260200191505060405180910390f35b3480156103fa57600080fd5b5061040361100b565b6040518082815260200191505060405180910390f35b34801561042557600080fd5b5061042e611011565b6040518082815260200191505060405180910390f35b34801561045057600080fd5b50610459611017565b6040518082815260200191505060405180910390f35b34801561047b57600080fd5b506104be6004803603602081101561049257600080fd5b81019080803573ffffffffffffffffffffffffffffffffffffffff16906020019092919050505061101d565b6040518082815260200191505060405180910390f35b3480156104e057600080fd5b506104e9611035565b005b3480156104f757600080fd5b50610500611233565b005b34801561050e57600080fd5b50610517611245565b6040518082815260200191505060405180910390f35b34801561053957600080fd5b5061054261124b565b6040518082815260200191505060405180910390f35b34801561056457600080fd5b5061056d611269565b6040518082815260200191505060405180910390f35b34801561058f57600080fd5b50610598611270565b005b3480156105a657600080fd5b506105af61127a565b604051808473ffffffffffffffffffffffffffffffffffffffff1673ffffffffffffffffffffffffffffffffffffffff1681526020018373ffffffffffffffffffffffffffffffffffffffff1673ffffffffffffffffffffffffffffffffffffffff168152602001828152602001935050505060405180910390f35b34801561063757600080fd5b506106646004803603602081101561064e57600080fd5b810190808035906020019092919050505061152d565b6040518082815260200191505060405180910390f35b34801561068657600080fd5b5061068f61158e565b6040518082815260200191505060405180910390f35b3480156106b157600080fd5b506106ba611594565b005b3480156106c857600080fd5b506106f7600480360360208110156106df57600080fd5b8101908080351515906020019092919050505061159e565b604051808573ffffffffffffffffffffffffffffffffffffffff1673ffffffffffffffffffffffffffffffffffffffff1681526020018481526020018381526020018215151515815260200194505050505060405180910390f35b34801561075e57600080fd5b506107676117b6565b604051808273ffffffffffffffffffffffffffffffffffffffff1673ffffffffffffffffffffffffffffffffffffffff16815260200191505060405180910390f35b3480156107b557600080fd5b506107ec600480360360408110156107cc57600080fd5b8101908080359060200190929190803590602001909291905050506117c5565b604051808681526020018581526020018481526020018381526020018281526020019550505050505060405180910390f35b34801561082a57600080fd5b50610833611a4f565b604051808215151515815260200191505060405180910390f35b34801561085957600080fd5b50610862611a62565b604051808273ffffffffffffffffffffffffffffffffffffffff1673ffffffffffffffffffffffffffffffffffffffff16815260200191505060405180910390f35b3480156108b057600080fd5b506108b9611a88565b6040518082815260200191505060405180910390f35b3480156108db57600080fd5b5061091e600480360360208110156108f257600080fd5b81019080803573ffffffffffffffffffffffffffffffffffffffff169060200190929190505050611a8e565b6040518082815260200191505060405180910390f35b34801561094057600080fd5b50610949611b26565b6040518082815260200191505060405180910390f35b34801561096b57600080fd5b50610974611b2c565b6040518082815260200191505060405180910390f35b34801561099657600080fd5b506109ed600480360360608110156109ad57600080fd5b81019080803573ffffffffffffffffffffffffffffffffffffffff1690602001909291908035906020019092919080359060200190929190505050611b32565b604051808215151515815260200191505060405180910390f35b348015610a1357600080fd5b50610a1c611bac565b6040518082815260200191505060405180910390f35b348015610a3e57600080fd5b50610a47611bb2565b604051808215151515815260200191505060405180910390f35b348015610a6d57600080fd5b50610a76611bc5565b6040518082815260200191505060405180910390f35b348015610a9857600080fd5b50610aa1611bcb565b6040518082815260200191505060405180910390f35b348015610ac357600080fd5b50610acc611bd5565b604051808273ffffffffffffffffffffffffffffffffffffffff1673ffffffffffffffffffffffffffffffffffffffff16815260200191505060405180910390f35b348015610b1a57600080fd5b50610b5d60048036036020811015610b3157600080fd5b81019080803573ffffffffffffffffffffffffffffffffffffffff169060200190929190505050611bfb565b6040518082815260200191505060405180910390f35b348015610b7f57600080fd5b50610b88611c4c565b604051808215151515815260200191505060405180910390f35b348015610bae57600080fd5b50610bb7611c5f565b604051808273ffffffffffffffffffffffffffffffffffffffff1673ffffffffffffffffffffffffffffffffffffffff16815260200191505060405180910390f35b348015610c0557600080fd5b50610c4860048036036020811015610c1c57600080fd5b81019080803573ffffffffffffffffffffffffffffffffffffffff169060200190929190505050611c85565b604051808373ffffffffffffffffffffffffffffffffffffffff1673ffffffffffffffffffffffffffffffffffffffff1681526020018273ffffffffffffffffffffffffffffffffffffffff1673ffffffffffffffffffffffffffffffffffffffff1681526020019250505060405180910390f35b348015610cc957600080fd5b50610cd2611ca3565b6040518082815260200191505060405180910390f35b348015610cf457600080fd5b50610cfd611ca9565b6040518082815260200191505060405180910390f35b348015610d1f57600080fd5b50610d28611caf565b6040518082815260200191505060405180910390f35b60095481565b600c5481565b600181565b610d57611cb5565b5050505050505050565b600f602052826000526040600020602052816000526040600020602052806000526040600020600092509250509054906101000a900460ff1681565b6000806007811115610dab57fe5b610db3610f20565b6007811115610dbe57fe5b141515610dca57600080fd5b6000809054906101000a900473ffffffffffffffffffffffffffffffffffffffff1673ffffffffffffffffffffffffffffffffffffffff163373ffffffffffffffffffffffffffffffffffffffff16141515610e2557600080fd5b816004819055506001820160058190555060008060166101000a81548160ff0219169083151502179055506001600060156101000a81548160ff02191690831515021790555083600a60006101000a81548173ffffffffffffffffffffffffffffffffffffffff021916908373ffffffffffffffffffffffffffffffffffffffff16021790555082600860006101000a81548173ffffffffffffffffffffffffffffffffffffffff021916908373ffffffffffffffffffffffffffffffffffffffff160217905550600280819055506001600381905550610f1462ed4e00600554611e6990919063ffffffff16565b60068190555050505050565b600080610f2b611bcb565b90506000610f3761124b565b9050600060169054906101000a900460ff1615610f5957600092505050611008565b600060149054906101000a900460ff1615610f7957600692505050611008565b600454421015610f8e57600192505050611008565b42600454108015610fa0575060055442105b15610fb057600292505050611008565b600060159054906101000a900460ff1615610fd057600592505050611008565b4282108015610fde57508042105b15610fee57600392505050611008565b8042111561100157600492505050611008565b6007925050505b90565b60055481565b60135481565b60045481565b600b6020528060005260406000206000915090505481565b600080600b60003373ffffffffffffffffffffffffffffffffffffffff1673ffffffffffffffffffffffffffffffffffffffff168152602001908152602001600020541490506000600a60009054906101000a900473ffffffffffffffffffffffffffffffffffffffff1673ffffffffffffffffffffffffffffffffffffffff166370a08231336040518263ffffffff167c0100000000000000000000000000000000000000000000000000000000028152600401808273ffffffffffffffffffffffffffffffffffffffff1673ffffffffffffffffffffffffffffffffffffffff16815260200191505060206040518083038186803b15801561113857600080fd5b505afa15801561114c573d6000803e3d6000fd5b505050506040513d602081101561116257600080fd5b8101908080519060200190929190505050905081151561118157600080fd5b6000811415151561119157600080fd5b80600b60003373ffffffffffffffffffffffffffffffffffffffff1673ffffffffffffffffffffffffffffffffffffffff168152602001908152602001600020819055506111f26111e133611bfb565b600e54611e6990919063ffffffff16565b600e8190555061120d81600d54611e6990919063ffffffff16565b600d819055506112296001600c54611e6990919063ffffffff16565b600c819055505050565b61123b611cb5565b5050505050505050565b60065481565b60006112646101a4600654611e6990919063ffffffff16565b905090565b62ed4e0081565b611278611e96565b565b6000806000600680600781111561128d57fe5b611295610f20565b60078111156112a057fe5b1415156112ac57600080fd5b6000600b60003373ffffffffffffffffffffffffffffffffffffffff1673ffffffffffffffffffffffffffffffffffffffff16815260200190815260200160002054141515156112fb57600080fd5b60003390506000600b60008373ffffffffffffffffffffffffffffffffffffffff1673ffffffffffffffffffffffffffffffffffffffff1681526020019081526020016000205490506000600d5461135e83600954611f1390919063ffffffff16565b81151561136757fe5b0490506000600b60008573ffffffffffffffffffffffffffffffffffffffff1673ffffffffffffffffffffffffffffffffffffffff16815260200190815260200160002081905550600760009054906101000a900473ffffffffffffffffffffffffffffffffffffffff1673ffffffffffffffffffffffffffffffffffffffff1663a9059cbb84836040518363ffffffff167c0100000000000000000000000000000000000000000000000000000000028152600401808373ffffffffffffffffffffffffffffffffffffffff1673ffffffffffffffffffffffffffffffffffffffff16815260200182815260200192505050602060405180830381600087803b15801561147457600080fd5b505af1158015611488573d6000803e3d6000fd5b505050506040513d602081101561149e57600080fd5b810190808051906020019092919050505015156114ba57600080fd5b6000309050818473ffffffffffffffffffffffffffffffffffffffff168273ffffffffffffffffffffffffffffffffffffffff167fddf252ad1be2c89b69c2b068fc378daa952ba7f163c4a11628f55a4df523b3ef60405160405180910390a48084839750975097505050505050909192565b6000806002611546600185611e6990919063ffffffff16565b81151561154f57fe5b04905060008390505b8082101561158457819050600282838681151561157157fe5b040181151561157c57fe5b049150611558565b8092505050919050565b600d5481565b61159c611f49565b565b60008060008060038060078111156115b257fe5b6115ba610f20565b60078111156115c557fe5b1415156115d157600080fd5b6000600b60003373ffffffffffffffffffffffffffffffffffffffff1673ffffffffffffffffffffffffffffffffffffffff168152602001908152602001600020541415151561162057600080fd5b61162f33600254600354611b32565b15151561163b57600080fd5b6001600f60003373ffffffffffffffffffffffffffffffffffffffff1673ffffffffffffffffffffffffffffffffffffffff168152602001908152602001600020600060025481526020019081526020016000206000600354815260200190815260200160002060006101000a81548160ff0219169083151502179055508515611703576116d56001601054611e6990919063ffffffff16565b6010819055506116f86116e733611bfb565b601254611e6990919063ffffffff16565b601281905550611743565b6117196001601154611e6990919063ffffffff16565b60118190555061173c61172b33611bfb565b601354611e6990919063ffffffff16565b6013819055505b6003546002543373ffffffffffffffffffffffffffffffffffffffff167fcc939d87badad2d9cd8b8ad6e88410094ecbf0ff62eab203ccc917c330ee6c0089604051808215151515815260200191505060405180910390a433600254600354888393509450945094509450509193509193565b60006117c0611fd1565b905090565b600080600080600060058060078111156117db57fe5b6117e3610f20565b60078111156117ee57fe5b1415156117fa57600080fd5b6000809054906101000a900473ffffffffffffffffffffffffffffffffffffffff1673ffffffffffffffffffffffffffffffffffffffff163373ffffffffffffffffffffffffffffffffffffffff1614151561185557600080fd5b61186b62ed4e0042611e6990919063ffffffff16565b881115151561187957600080fd5b42881015151561188857600080fd5b86600760009054906101000a900473ffffffffffffffffffffffffffffffffffffffff1673ffffffffffffffffffffffffffffffffffffffff166370a08231600860009054906101000a900473ffffffffffffffffffffffffffffffffffffffff166040518263ffffffff167c0100000000000000000000000000000000000000000000000000000000028152600401808273ffffffffffffffffffffffffffffffffffffffff1673ffffffffffffffffffffffffffffffffffffffff16815260200191505060206040518083038186803b15801561196657600080fd5b505afa15801561197a573d6000803e3d6000fd5b505050506040513d602081101561199057600080fd5b8101908080519060200190929190505050101515156119ae57600080fd5b87600681905550866001819055506003546002547ffb7765bde31e4a004830eb775ca387e7bd0dd3d88c48f40588cfa732224fa9a28a6119f96101a48d611e6990919063ffffffff16565b8b60405180848152602001838152602001828152602001935050505060405180910390a360025460035489611a396101a48c611e6990919063ffffffff16565b8a95509550955095509550509295509295909350565b600060159054906101000a900460ff1681565b600760009054906101000a900473ffffffffffffffffffffffffffffffffffffffff1681565b60015481565b60006006806007811115611a9e57fe5b611aa6610f20565b6007811115611ab157fe5b141515611abd57600080fd5b600d54611b14600b60008673ffffffffffffffffffffffffffffffffffffffff1673ffffffffffffffffffffffffffffffffffffffff16815260200190815260200160002054600954611f1390919063ffffffff16565b811515611b1d57fe5b04915050919050565b60025481565b60115481565b6000600f60008573ffffffffffffffffffffffffffffffffffffffff1673ffffffffffffffffffffffffffffffffffffffff1681526020019081526020016000206000848152602001908152602001600020600083815260200190815260200160002060009054906101000a900460ff1690509392505050565b60035481565b600060149054906101000a900460ff1681565b60125481565b6000600654905090565b600860009054906101000a900473ffffffffffffffffffffffffffffffffffffffff1681565b6000611c45600b60008473ffffffffffffffffffffffffffffffffffffffff1673ffffffffffffffffffffffffffffffffffffffff1681526020019081526020016000205461152d565b9050919050565b600060169054906101000a900460ff1681565b600a60009054906101000a900473ffffffffffffffffffffffffffffffffffffffff1681565b600080611c9183611ffa565b611c996117b6565b8391509150915091565b600e5481565b6101a481565b60105481565b6000806000806000806000806004806007811115611ccf57fe5b611cd7610f20565b6007811115611ce257fe5b141515611cee57600080fd5b600060135460125410159050600060035460031490508015611d1757611d1261214f565b611d32565b8115611d3157611d30611d286117b6565b600154612296565b5b5b6002549a506003549950819850601254975060135496506010549550601154945060015493508115611d87576001600381905550611d7c6001600254611e6990919063ffffffff16565b600281905550611da4565b611d9d6001600354611e6990919063ffffffff16565b6003819055505b6001600060156101000a81548160ff0219169083151502179055506000601281905550600060138190555060006010819055506000601181905550898b7f2b9e4573f56143da9c2ad35b4749151ed1d6139ca8654fc42bb6066f33f5ffc88b8b8b8b8b8b6040518087151515158152602001868152602001858152602001848152602001838152602001828152602001965050505050505060405180910390a38a8a8a8a8a8a8a8a9a509a509a509a509a509a509a509a505050509091929394959697565b6000808284019050838110158015611e815750828110155b1515611e8c57600080fd5b8091505092915050565b6005806007811115611ea457fe5b611eac610f20565b6007811115611eb757fe5b141515611ec357600080fd5b6000611ecd611bcb565b90506000611ed961124b565b90504282108015611ee957508042105b1515611ef457600080fd5b60008060156101000a81548160ff021916908315150217905550505050565b60008082840290506000841480611f345750828482811515611f3157fe5b04145b1515611f3f57600080fd5b8091505092915050565b6005806007811115611f5757fe5b611f5f610f20565b6007811115611f6a57fe5b141515611f7657600080fd5b6000611f8061124b565b90506000611f9a62ed4e0083611e6990919063ffffffff16565b90504281111515611faa57600080fd5b60008060156101000a81548160ff021916908315150217905550611fcc61214f565b505050565b60008060009054906101000a900473ffffffffffffffffffffffffffffffffffffffff16905090565b6000809054906101000a900473ffffffffffffffffffffffffffffffffffffffff1673ffffffffffffffffffffffffffffffffffffffff163373ffffffffffffffffffffffffffffffffffffffff1614151561205557600080fd5b600073ffffffffffffffffffffffffffffffffffffffff168173ffffffffffffffffffffffffffffffffffffffff161415151561209157600080fd5b8073ffffffffffffffffffffffffffffffffffffffff166000809054906101000a900473ffffffffffffffffffffffffffffffffffffffff1673ffffffffffffffffffffffffffffffffffffffff167f8be0079c531659141344cd1fd0a4f28419497f9722a3daafe3b4186f6b6457e060405160405180910390a3806000806101000a81548173ffffffffffffffffffffffffffffffffffffffff021916908373ffffffffffffffffffffffffffffffffffffffff16021790555050565b600760009054906101000a900473ffffffffffffffffffffffffffffffffffffffff1673ffffffffffffffffffffffffffffffffffffffff166370a08231600860009054906101000a900473ffffffffffffffffffffffffffffffffffffffff166040518263ffffffff167c0100000000000000000000000000000000000000000000000000000000028152600401808273ffffffffffffffffffffffffffffffffffffffff1673ffffffffffffffffffffffffffffffffffffffff16815260200191505060206040518083038186803b15801561222c57600080fd5b505afa158015612240573d6000803e3d6000fd5b505050506040513d602081101561225657600080fd5b810190808051906020019092919050505060098190555061227930600954612296565b6001600060146101000a81548160ff021916908315150217905550565b606060446040519080825280601f01601f1916602001820160405280156122cc5781602001600182028038833980820191505090505b50905060008090505b604481101561234d5760007f010000000000000000000000000000000000000000000000000000000000000002828281518110151561231057fe5b9060200101907effffffffffffffffffffffffffffffffffffffffffffffffffffffffffffff1916908160001a90535080806001019150506122d5565b600090505b60048110156123fa5763a9059cbb7c0100000000000000000000000000000000000000000000000000000000028160048110151561238c57fe5b1a7f01000000000000000000000000000000000000000000000000000000000000000282828151811015156123bd57fe5b9060200101907effffffffffffffffffffffffffffffffffffffffffffffffffffffffffffff1916908160001a9053508080600101915050612352565b601090505b602481101561249657836c01000000000000000000000000026010820360148110151561242857fe5b1a7f010000000000000000000000000000000000000000000000000000000000000002828281518110151561245957fe5b9060200101907effffffffffffffffffffffffffffffffffffffffffffffffffffffffffffff1916908160001a90535080806001019150506123ff565b602490505b60448110156125265782600102602482036020811015156124b857fe5b1a7f01000000000000000000000000000000000000000000000000000000000000000282828151811015156124e957fe5b9060200101907effffffffffffffffffffffffffffffffffffffffffffffffffffffffffffff1916908160001a905350808060010191505061249b565b600860009054906101000a900473ffffffffffffffffffffffffffffffffffffffff1673ffffffffffffffffffffffffffffffffffffffff1663c6427474600760009054906101000a900473ffffffffffffffffffffffffffffffffffffffff166000856040518463ffffffff167c0100000000000000000000000000000000000000000000000000000000028152600401808473ffffffffffffffffffffffffffffffffffffffff1673ffffffffffffffffffffffffffffffffffffffff16815260200183815260200180602001828103825283818151815260200191508051906020019080838360005b8381101561262d578082015181840152602081019050612612565b50505050905090810190601f16801561265a5780820380516001836020036101000a031916815260200191505b50945050505050602060405180830381600087803b15801561267b57600080fd5b505af115801561268f573d6000803e3d6000fd5b505050506040513d60208110156126a557600080fd5b8101908080519060200190929190505050505050505056fea165627a7a72305820e4ab8dad26704b7689b2e2dc4bed96239f87bf33fa9459fb4ee3bc629ea32dd20029a165627a7a72305820b5a92d266342e1cd341b7221ecb815aac95e710f7eeb92148b6482fd21a1ae950029",
  "source": "pragma solidity >=0.4.15;\n\nimport \"./TokenPoll.sol\";\nimport \"./Ownable.sol\";\n\n// Voting is quadratic\ncontract TokenPollFactory {\n  event TokenPollCreated(address indexed owner, address tokenPoll);\n\n  address public stableCoin;\n\n  constructor (address _stableCoin) public { stableCoin = _stableCoin;  }\n\n  function createTokenPoll() public returns (address owner, address tokenPoll) {\n    TokenPoll tp = new TokenPoll(stableCoin);\n\n    tp.transferOwnership(msg.sender);\n\n    owner = msg.sender;\n    tokenPoll = address(tp);\n\n    emit TokenPollCreated(owner, tokenPoll);\n    return (owner, tokenPoll);\n  }\n}\n",
  "sourcePath": "/home/khan/Projects/TokenPoll/contracts/TokenPollFactory.sol",
  "compiler": {
    "name": "solc",
    "version": "0.5.1+commit.c8a2cb62.Emscripten.clang"
  },
  "schemaVersion": "3.0.0-beta.2",
  "updatedAt": "2019-01-25T08:35:08.644Z",
  "devdoc": {
    "methods": {}
  },
  "userdoc": {
    "methods": {}
  }
}