{
  "contractName": "TokenPollFactory",
  "abi": [
    {
      "inputs": [],
      "payable": false,
      "stateMutability": "nonpayable",
      "type": "constructor"
    },
    {
      "anonymous": false,
      "inputs": [
        {
          "indexed": true,
          "name": "sender",
          "type": "address"
        },
        {
          "indexed": false,
          "name": "tokenPoll",
          "type": "address"
        }
      ],
      "name": "TokenPollCreated",
      "type": "event"
    },
    {
      "constant": false,
      "inputs": [],
      "name": "createTokenPoll",
      "outputs": [],
      "payable": false,
      "stateMutability": "nonpayable",
      "type": "function"
    }
  ],
  "bytecode": "0x6060604052341561000f57600080fd5b6119648061001e6000396000f300606060405260043610610041576000357c0100000000000000000000000000000000000000000000000000000000900463ffffffff168063f3a03d2814610046575b600080fd5b341561005157600080fd5b61005961005b565b005b60006100656101a8565b604051809103906000f080151561007b57600080fd5b90508073ffffffffffffffffffffffffffffffffffffffff1663f2fde38b336040518263ffffffff167c0100000000000000000000000000000000000000000000000000000000028152600401808273ffffffffffffffffffffffffffffffffffffffff1673ffffffffffffffffffffffffffffffffffffffff168152602001915050600060405180830381600087803b151561011757600080fd5b6102c65a03f1151561012857600080fd5b5050503373ffffffffffffffffffffffffffffffffffffffff167f7564a76079f912cbe2d4cab94216340ff1c978c197ef4b5784d669a00dcb0ed582604051808273ffffffffffffffffffffffffffffffffffffffff1673ffffffffffffffffffffffffffffffffffffffff16815260200191505060405180910390a250565b604051611780806101b98339019056006060604052341561000f57600080fd5b33600360006101000a81548173ffffffffffffffffffffffffffffffffffffffff021916908373ffffffffffffffffffffffffffffffffffffffff1602179055506117218061005f6000396000f300606060405260043610610154576000357c0100000000000000000000000000000000000000000000000000000000900463ffffffff16806301541fe31461016e57806306b091f91461019757806307973ccf146101d95780631865c57d1461020257806324e3eb64146102395780632790c6421461026257806329a870231461028b57806332f3e20d146102d85780633f571453146102ed57806360f8dab714610316578063677342ce1461032b57806367eeba0c14610362578063728cdbca1461038b578063764912ef1461041d5780637ace48e714610446578063893d20e81461046b578063992642e5146104c0578063adf4a14414610515578063aec2ccae1461051f578063b5b47f4214610570578063e2fdcc1714610599578063eab6d716146105ee578063efd6c0eb1461063b578063f2fde38b14610690578063f5f3d4f7146106c9578063fb286c65146106f2575b341561015f57600080fd5b6000151561016c57600080fd5b005b341561017957600080fd5b61018161071b565b6040518082815260200191505060405180910390f35b34156101a257600080fd5b6101d7600480803573ffffffffffffffffffffffffffffffffffffffff16906020019091908035906020019091905050610721565b005b34156101e457600080fd5b6101ec6107d1565b6040518082815260200191505060405180910390f35b341561020d57600080fd5b6102156107d7565b6040518082600781111561022557fe5b60ff16815260200191505060405180910390f35b341561024457600080fd5b61024c610864565b6040518082815260200191505060405180910390f35b341561026d57600080fd5b61027561086a565b6040518082815260200191505060405180910390f35b341561029657600080fd5b6102c2600480803573ffffffffffffffffffffffffffffffffffffffff16906020019091905050610870565b6040518082815260200191505060405180910390f35b34156102e357600080fd5b6102eb610888565b005b34156102f857600080fd5b610300610a68565b6040518082815260200191505060405180910390f35b341561032157600080fd5b610329610a77565b005b341561033657600080fd5b61034c6004808035906020019091905050610bad565b6040518082815260200191505060405180910390f35b341561036d57600080fd5b610375610bfe565b6040518082815260200191505060405180910390f35b341561039657600080fd5b61041b600480803573ffffffffffffffffffffffffffffffffffffffff1690602001909190803573ffffffffffffffffffffffffffffffffffffffff1690602001909190803573ffffffffffffffffffffffffffffffffffffffff16906020019091908035906020019091908035906020019091908035906020019091905050610c0a565b005b341561042857600080fd5b610430610d9f565b6040518082815260200191505060405180910390f35b341561045157600080fd5b61046960048080351515906020019091905050610da5565b005b341561047657600080fd5b61047e610edf565b604051808273ffffffffffffffffffffffffffffffffffffffff1673ffffffffffffffffffffffffffffffffffffffff16815260200191505060405180910390f35b34156104cb57600080fd5b6104d3610eee565b604051808273ffffffffffffffffffffffffffffffffffffffff1673ffffffffffffffffffffffffffffffffffffffff16815260200191505060405180910390f35b61051d610f14565b005b341561052a57600080fd5b610556600480803573ffffffffffffffffffffffffffffffffffffffff16906020019091905050611071565b604051808215151515815260200191505060405180910390f35b341561057b57600080fd5b610583611091565b6040518082815260200191505060405180910390f35b34156105a457600080fd5b6105ac611097565b604051808273ffffffffffffffffffffffffffffffffffffffff1673ffffffffffffffffffffffffffffffffffffffff16815260200191505060405180910390f35b34156105f957600080fd5b610625600480803573ffffffffffffffffffffffffffffffffffffffff169060200190919050506110bd565b6040518082815260200191505060405180910390f35b341561064657600080fd5b61064e61110e565b604051808273ffffffffffffffffffffffffffffffffffffffff1673ffffffffffffffffffffffffffffffffffffffff16815260200191505060405180910390f35b341561069b57600080fd5b6106c7600480803573ffffffffffffffffffffffffffffffffffffffff16906020019091905050611134565b005b34156106d457600080fd5b6106dc611140565b6040518082815260200191505060405180910390f35b34156106fd57600080fd5b610705611146565b6040518082815260200191505060405180910390f35b60075481565b600360009054906101000a900473ffffffffffffffffffffffffffffffffffffffff1673ffffffffffffffffffffffffffffffffffffffff163373ffffffffffffffffffffffffffffffffffffffff1614151561077d57600080fd5b6107cd600660009054906101000a900473ffffffffffffffffffffffffffffffffffffffff16600860009054906101000a900473ffffffffffffffffffffffffffffffffffffffff16848461114c565b5050565b600b5481565b6000600560029054906101000a900460ff1615156107f85760009050610861565b60095442101561080b5760019050610861565b4260095410801561081d5750600a5442105b1561082b5760029050610861565b600560009054906101000a900460ff16156108495760079050610861565b600a5442111561085c5760039050610861565b600690505b90565b600a5481565b60095481565b60046020528060005260406000206000915090505481565b6000600280600781111561089857fe5b6108a06107d7565b60078111156108ab57fe5b1415156108b757600080fd5b6000600460003373ffffffffffffffffffffffffffffffffffffffff1673ffffffffffffffffffffffffffffffffffffffff1681526020019081526020016000205414151561090557600080fd5b600560039054906101000a900473ffffffffffffffffffffffffffffffffffffffff1673ffffffffffffffffffffffffffffffffffffffff166370a08231336000604051602001526040518263ffffffff167c0100000000000000000000000000000000000000000000000000000000028152600401808273ffffffffffffffffffffffffffffffffffffffff1673ffffffffffffffffffffffffffffffffffffffff168152602001915050602060405180830381600087803b15156109ca57600080fd5b6102c65a03f115156109db57600080fd5b50505060405180519050915081600460003373ffffffffffffffffffffffffffffffffffffffff1673ffffffffffffffffffffffffffffffffffffffff16815260200190815260200160002081905550610a34336110bd565b600d6000828254019250508190555081600c600082825401925050819055506001600b600082825401925050819055505050565b6000610a7261147c565b905090565b60008060006007806007811115610a8a57fe5b610a926107d7565b6007811115610a9d57fe5b141515610aa957600080fd5b339350600460008573ffffffffffffffffffffffffffffffffffffffff1673ffffffffffffffffffffffffffffffffffffffff16815260200190815260200160002054925060008314151515610afe57600080fd5b6000600460008673ffffffffffffffffffffffffffffffffffffffff1673ffffffffffffffffffffffffffffffffffffffff16815260200190815260200160002081905550600c548360075402811515610b5457fe5b049150610ba7600660009054906101000a900473ffffffffffffffffffffffffffffffffffffffff16600860009054906101000a900473ffffffffffffffffffffffffffffffffffffffff16868561114c565b50505050565b6000806000600260018501811515610bc157fe5b0491508390505b80821015610bf4578190506002828386811515610be157fe5b0401811515610bec57fe5b049150610bc8565b8092505050919050565b60008060000154905090565b6000806007811115610c1857fe5b610c206107d7565b6007811115610c2b57fe5b141515610c3757600080fd5b600360009054906101000a900473ffffffffffffffffffffffffffffffffffffffff1673ffffffffffffffffffffffffffffffffffffffff163373ffffffffffffffffffffffffffffffffffffffff16141515610c9357600080fd5b4284111515610ca157600080fd5b6001600560026101000a81548160ff02191690831515021790555086600560036101000a81548173ffffffffffffffffffffffffffffffffffffffff021916908373ffffffffffffffffffffffffffffffffffffffff16021790555085600660006101000a81548173ffffffffffffffffffffffffffffffffffffffff021916908373ffffffffffffffffffffffffffffffffffffffff1602179055508360098190555082600a8190555084600860006101000a81548173ffffffffffffffffffffffffffffffffffffffff021916908373ffffffffffffffffffffffffffffffffffffffff160217905550610d96826114da565b50505050505050565b600c5481565b60001515600e60003373ffffffffffffffffffffffffffffffffffffffff1673ffffffffffffffffffffffffffffffffffffffff16815260200190815260200160002060009054906101000a900460ff161515141515610e0457600080fd5b6001600e60003373ffffffffffffffffffffffffffffffffffffffff1673ffffffffffffffffffffffffffffffffffffffff16815260200190815260200160002060006101000a81548160ff0219169083151502179055508015610e78576001600f60008282540192505081905550610e8a565b60016010600082825401925050819055505b3373ffffffffffffffffffffffffffffffffffffffff167fa635d31e67484fd1d93ba01ab0ef882e4440a78aa40d0e2771e8a2aace45986982604051808215151515815260200191505060405180910390a250565b6000610ee96114e6565b905090565b600660009054906101000a900473ffffffffffffffffffffffffffffffffffffffff1681565b6005806007811115610f2257fe5b610f2a6107d7565b6007811115610f3557fe5b141515610f4157600080fd5b610f4b60006114da565b600660009054906101000a900473ffffffffffffffffffffffffffffffffffffffff1673ffffffffffffffffffffffffffffffffffffffff166370a08231600860009054906101000a900473ffffffffffffffffffffffffffffffffffffffff166000604051602001526040518263ffffffff167c0100000000000000000000000000000000000000000000000000000000028152600401808273ffffffffffffffffffffffffffffffffffffffff1673ffffffffffffffffffffffffffffffffffffffff168152602001915050602060405180830381600087803b151561103257600080fd5b6102c65a03f1151561104357600080fd5b505050604051805190506007819055506001600560006101000a81548160ff02191690831515021790555050565b600e6020528060005260406000206000915054906101000a900460ff1681565b60105481565b600860009054906101000a900473ffffffffffffffffffffffffffffffffffffffff1681565b6000611107600460008473ffffffffffffffffffffffffffffffffffffffff1673ffffffffffffffffffffffffffffffffffffffff16815260200190815260200160002054610bad565b9050919050565b600560039054906101000a900473ffffffffffffffffffffffffffffffffffffffff1681565b61113d81611510565b50565b600d5481565b600f5481565b6111546116e1565b600061115f83611668565b603860405180591061116e5750595b9080825280601f01601f19166020018201604052509150600090505b60048110156112325763a9059cbb7c010000000000000000000000000000000000000000000000000000000002816004811015156111c457fe5b1a7f01000000000000000000000000000000000000000000000000000000000000000282828151811015156111f557fe5b9060200101907effffffffffffffffffffffffffffffffffffffffffffffffffffffffffffff1916908160001a905350808060010191505061118a565b5b60188110156112c757836c01000000000000000000000000028160148110151561125957fe5b1a7f010000000000000000000000000000000000000000000000000000000000000002828281518110151561128a57fe5b9060200101907effffffffffffffffffffffffffffffffffffffffffffffffffffffffffffff1916908160001a9053508080600101915050611233565b5b60388110156113505782600102816020811015156112e257fe5b1a7f010000000000000000000000000000000000000000000000000000000000000002828281518110151561131357fe5b9060200101907effffffffffffffffffffffffffffffffffffffffffffffffffffffffffffff1916908160001a90535080806001019150506112c8565b8473ffffffffffffffffffffffffffffffffffffffff1663c6427474876000856040518463ffffffff167c0100000000000000000000000000000000000000000000000000000000028152600401808473ffffffffffffffffffffffffffffffffffffffff1673ffffffffffffffffffffffffffffffffffffffff16815260200183815260200180602001828103825283818151815260200191508051906020019080838360005b838110156114135780820151818401526020810190506113f8565b50505050905090810190601f1680156114405780820380516001836020036101000a031916815260200191505b50945050505050600060405180830381600087803b151561146057600080fd5b6102c65a03f1151561147157600080fd5b505050505050505050565b6000806000620151804281151561148f57fe5b0491506000600101548211905080156114ae57600080015492506114d5565b6000800154600060020154116114cf576000600201546000800154036114d2565b60005b92505b505090565b80600080018190555050565b6000600360009054906101000a900473ffffffffffffffffffffffffffffffffffffffff16905090565b600360009054906101000a900473ffffffffffffffffffffffffffffffffffffffff1673ffffffffffffffffffffffffffffffffffffffff163373ffffffffffffffffffffffffffffffffffffffff1614151561156c57600080fd5b600073ffffffffffffffffffffffffffffffffffffffff168173ffffffffffffffffffffffffffffffffffffffff16141515156115a857600080fd5b8073ffffffffffffffffffffffffffffffffffffffff16600360009054906101000a900473ffffffffffffffffffffffffffffffffffffffff1673ffffffffffffffffffffffffffffffffffffffff167f8be0079c531659141344cd1fd0a4f28419497f9722a3daafe3b4186f6b6457e060405160405180910390a380600360006101000a81548173ffffffffffffffffffffffffffffffffffffffff021916908373ffffffffffffffffffffffffffffffffffffffff16021790555050565b600080620151804281151561167957fe5b0491506000600101548211156116ac576000806002018190555062015180428115156116a157fe5b046000600101819055505b60006002015460008001540390508281101515156116c957600080fd5b82600060020160008282540192505081905550505050565b6020604051908101604052806000815250905600a165627a7a72305820938e34c769159078a6c055258b4e1c0db92a460859ae326d66132b162bd7a0db0029a165627a7a72305820b3479932535a05718c94854bdf9303ce82426c3d087c3dbc5fce62e7edd432120029",
  "source": "pragma solidity ^0.4.15;\n\nimport \"./TokenPoll.sol\";\n\n// Voting is quadratic\ncontract TokenPollFactory {\n  event TokenPollCreated(address indexed sender, address tokenPoll);\n\n  function TokenPollFactory () {}\n\n  function createTokenPoll() {\n    TokenPoll tp = new TokenPoll();\n    tp.transferOwnership(msg.sender);\n    TokenPollCreated(msg.sender, tp);\n  }\n}\n",
  "sourcePath": "/home/nick/workspace/dapps/TokenPoll/contracts/TokenPollFactory.sol",
  "compiler": {
    "name": "solc",
    "version": "0.4.19+commit.c4cbbb05.Emscripten.clang"
  },
  "schemaVersion": "2.0.0",
  "updatedAt": "2018-04-24T01:26:36.198Z"
}