{
  "contractName": "TokenPoll",
  "abi": [
    {
      "constant": true,
      "inputs": [],
      "name": "totalRefund",
      "outputs": [
        {
          "name": "",
          "type": "uint256"
        }
      ],
      "payable": false,
      "stateMutability": "view",
      "type": "function"
    },
    {
      "constant": true,
      "inputs": [],
      "name": "userCount",
      "outputs": [
        {
          "name": "",
          "type": "uint256"
        }
      ],
      "payable": false,
      "stateMutability": "view",
      "type": "function"
    },
    {
      "constant": true,
      "inputs": [],
      "name": "allocEndTime",
      "outputs": [
        {
          "name": "",
          "type": "uint256"
        }
      ],
      "payable": false,
      "stateMutability": "view",
      "type": "function"
    },
    {
      "constant": true,
      "inputs": [],
      "name": "allocStartTime",
      "outputs": [
        {
          "name": "",
          "type": "uint256"
        }
      ],
      "payable": false,
      "stateMutability": "view",
      "type": "function"
    },
    {
      "constant": true,
      "inputs": [
        {
          "name": "",
          "type": "address"
        }
      ],
      "name": "userTokenBalance",
      "outputs": [
        {
          "name": "",
          "type": "uint256"
        }
      ],
      "payable": false,
      "stateMutability": "view",
      "type": "function"
    },
    {
      "constant": true,
      "inputs": [],
      "name": "tokenContract",
      "outputs": [
        {
          "name": "",
          "type": "address"
        }
      ],
      "payable": false,
      "stateMutability": "view",
      "type": "function"
    },
    {
      "constant": true,
      "inputs": [],
      "name": "totalTokenCount",
      "outputs": [
        {
          "name": "",
          "type": "uint256"
        }
      ],
      "payable": false,
      "stateMutability": "view",
      "type": "function"
    },
    {
      "constant": true,
      "inputs": [],
      "name": "noVotes",
      "outputs": [
        {
          "name": "",
          "type": "uint256"
        }
      ],
      "payable": false,
      "stateMutability": "view",
      "type": "function"
    },
    {
      "constant": true,
      "inputs": [],
      "name": "escrow",
      "outputs": [
        {
          "name": "",
          "type": "address"
        }
      ],
      "payable": false,
      "stateMutability": "view",
      "type": "function"
    },
    {
      "constant": true,
      "inputs": [],
      "name": "totalVotePower",
      "outputs": [
        {
          "name": "",
          "type": "uint256"
        }
      ],
      "payable": false,
      "stateMutability": "view",
      "type": "function"
    },
    {
      "constant": true,
      "inputs": [],
      "name": "yesVotes",
      "outputs": [
        {
          "name": "",
          "type": "uint256"
        }
      ],
      "payable": false,
      "stateMutability": "view",
      "type": "function"
    },
    {
      "inputs": [
        {
          "name": "_initializer",
          "type": "address"
        }
      ],
      "payable": false,
      "stateMutability": "nonpayable",
      "type": "constructor"
    },
    {
      "payable": false,
      "stateMutability": "nonpayable",
      "type": "fallback"
    },
    {
      "constant": false,
      "inputs": [
        {
          "name": "_token",
          "type": "address"
        },
        {
          "name": "_escrow",
          "type": "address"
        },
        {
          "name": "_allocStartTime",
          "type": "uint256"
        },
        {
          "name": "_allocEndTime",
          "type": "uint256"
        }
      ],
      "name": "initialize",
      "outputs": [],
      "payable": false,
      "stateMutability": "nonpayable",
      "type": "function"
    },
    {
      "constant": false,
      "inputs": [],
      "name": "allocVotes",
      "outputs": [],
      "payable": false,
      "stateMutability": "nonpayable",
      "type": "function"
    },
    {
      "constant": false,
      "inputs": [
        {
          "name": "value",
          "type": "bool"
        }
      ],
      "name": "castVote",
      "outputs": [],
      "payable": false,
      "stateMutability": "nonpayable",
      "type": "function"
    },
    {
      "constant": false,
      "inputs": [],
      "name": "startRefund",
      "outputs": [],
      "payable": true,
      "stateMutability": "payable",
      "type": "function"
    },
    {
      "constant": false,
      "inputs": [],
      "name": "userRefund",
      "outputs": [],
      "payable": false,
      "stateMutability": "nonpayable",
      "type": "function"
    },
    {
      "constant": true,
      "inputs": [],
      "name": "getState",
      "outputs": [
        {
          "name": "",
          "type": "uint8"
        }
      ],
      "payable": false,
      "stateMutability": "view",
      "type": "function"
    },
    {
      "constant": true,
      "inputs": [
        {
          "name": "user",
          "type": "address"
        }
      ],
      "name": "getUserVotePower",
      "outputs": [
        {
          "name": "",
          "type": "uint256"
        }
      ],
      "payable": false,
      "stateMutability": "view",
      "type": "function"
    },
    {
      "constant": true,
      "inputs": [
        {
          "name": "x",
          "type": "uint256"
        }
      ],
      "name": "sqrt",
      "outputs": [
        {
          "name": "",
          "type": "uint256"
        }
      ],
      "payable": false,
      "stateMutability": "pure",
      "type": "function"
    }
  ],
  "bytecode": "0x6060604052341561000f57600080fd5b604051602080610d598339810160405280805190602001909190505080600160006101000a81548173ffffffffffffffffffffffffffffffffffffffff021916908373ffffffffffffffffffffffffffffffffffffffff16021790555050610cdd8061007c6000396000f300606060405260043610610107576000357c0100000000000000000000000000000000000000000000000000000000900463ffffffff16806301541fe31461012157806307973ccf1461014a5780631865c57d1461017357806324e3eb64146101aa5780632790c642146101d357806329a87023146101fc57806332f3e20d1461024957806355a373d61461025e57806360f8dab7146102b3578063677342ce146102c8578063764912ef146102ff5780637ace48e714610328578063adf4a1441461034d578063b5b47f4214610357578063e2fdcc1714610380578063eab6d716146103d5578063eb990c5914610422578063f5f3d4f71461048c578063fb286c65146104b5575b341561011257600080fd5b6000151561011f57600080fd5b005b341561012c57600080fd5b6101346104de565b6040518082815260200191505060405180910390f35b341561015557600080fd5b61015d6104e4565b6040518082815260200191505060405180910390f35b341561017e57600080fd5b6101866104ea565b6040518082600781111561019657fe5b60ff16815260200191505060405180910390f35b34156101b557600080fd5b6101bd610577565b6040518082815260200191505060405180910390f35b34156101de57600080fd5b6101e661057d565b6040518082815260200191505060405180910390f35b341561020757600080fd5b610233600480803573ffffffffffffffffffffffffffffffffffffffff16906020019091905050610583565b6040518082815260200191505060405180910390f35b341561025457600080fd5b61025c61059b565b005b341561026957600080fd5b610271610779565b604051808273ffffffffffffffffffffffffffffffffffffffff1673ffffffffffffffffffffffffffffffffffffffff16815260200191505060405180910390f35b34156102be57600080fd5b6102c661079f565b005b34156102d357600080fd5b6102e9600480803590602001909190505061088d565b6040518082815260200191505060405180910390f35b341561030a57600080fd5b6103126108de565b6040518082815260200191505060405180910390f35b341561033357600080fd5b61034b600480803515159060200190919050506108e4565b005b6103556109cc565b005b341561036257600080fd5b61036a610a9d565b6040518082815260200191505060405180910390f35b341561038b57600080fd5b610393610aa3565b604051808273ffffffffffffffffffffffffffffffffffffffff1673ffffffffffffffffffffffffffffffffffffffff16815260200191505060405180910390f35b34156103e057600080fd5b61040c600480803573ffffffffffffffffffffffffffffffffffffffff16906020019091905050610ac9565b6040518082815260200191505060405180910390f35b341561042d57600080fd5b61048a600480803573ffffffffffffffffffffffffffffffffffffffff1690602001909190803573ffffffffffffffffffffffffffffffffffffffff16906020019091908035906020019091908035906020019091905050610b19565b005b341561049757600080fd5b61049f610c61565b6040518082815260200191505060405180910390f35b34156104c057600080fd5b6104c8610c67565b6040518082815260200191505060405180910390f35b60035481565b60075481565b6000600160169054906101000a900460ff16151561050b5760009050610574565b60055442101561051e5760019050610574565b42600554108015610530575060065442105b1561053e5760029050610574565b600160149054906101000a900460ff161561055c5760079050610574565b60065442111561056f5760039050610574565b600690505b90565b60065481565b60055481565b60006020528060005260406000206000915090505481565b600060028060078111156105ab57fe5b6105b36104ea565b60078111156105be57fe5b1415156105ca57600080fd5b60008060003373ffffffffffffffffffffffffffffffffffffffff1673ffffffffffffffffffffffffffffffffffffffff1681526020019081526020016000205414151561061757600080fd5b600260009054906101000a900473ffffffffffffffffffffffffffffffffffffffff1673ffffffffffffffffffffffffffffffffffffffff166370a08231336000604051602001526040518263ffffffff167c0100000000000000000000000000000000000000000000000000000000028152600401808273ffffffffffffffffffffffffffffffffffffffff1673ffffffffffffffffffffffffffffffffffffffff168152602001915050602060405180830381600087803b15156106dc57600080fd5b6102c65a03f115156106ed57600080fd5b505050604051805190509150816000803373ffffffffffffffffffffffffffffffffffffffff1673ffffffffffffffffffffffffffffffffffffffff1681526020019081526020016000208190555061074533610ac9565b6009600082825401925050819055508160086000828254019250508190555060016007600082825401925050819055505050565b600260009054906101000a900473ffffffffffffffffffffffffffffffffffffffff1681565b600080600060078060078111156107b257fe5b6107ba6104ea565b60078111156107c557fe5b1415156107d157600080fd5b3393506000808573ffffffffffffffffffffffffffffffffffffffff1673ffffffffffffffffffffffffffffffffffffffff1681526020019081526020016000205492506000831415151561082557600080fd5b60008060008673ffffffffffffffffffffffffffffffffffffffff1673ffffffffffffffffffffffffffffffffffffffff16815260200190815260200160002081905550600854836003540281151561087a57fe5b0491506108878483610c6d565b50505050565b60008060006002600185018115156108a157fe5b0491508390505b808210156108d45781905060028283868115156108c157fe5b04018115156108cc57fe5b0491506108a8565b8092505050919050565b60085481565b60001515600a60003373ffffffffffffffffffffffffffffffffffffffff1673ffffffffffffffffffffffffffffffffffffffff16815260200190815260200160002060009054906101000a900460ff16151514151561094357600080fd5b6001600a60003373ffffffffffffffffffffffffffffffffffffffff1673ffffffffffffffffffffffffffffffffffffffff16815260200190815260200160002060006101000a81548160ff02191690831515021790555080156109b7576001600b600082825401925050819055506109c9565b6001600c600082825401925050819055505b50565b60058060078111156109da57fe5b6109e26104ea565b60078111156109ed57fe5b1415156109f957600080fd5b600460009054906101000a900473ffffffffffffffffffffffffffffffffffffffff168073ffffffffffffffffffffffffffffffffffffffff16600460009054906101000a900473ffffffffffffffffffffffffffffffffffffffff1673ffffffffffffffffffffffffffffffffffffffff16141515610a7857600080fd5b3460038190555060018060146101000a81548160ff0219169083151502179055505050565b600c5481565b600460009054906101000a900473ffffffffffffffffffffffffffffffffffffffff1681565b6000610b126000808473ffffffffffffffffffffffffffffffffffffffff1673ffffffffffffffffffffffffffffffffffffffff1681526020019081526020016000205461088d565b9050919050565b6000806007811115610b2757fe5b610b2f6104ea565b6007811115610b3a57fe5b141515610b4657600080fd5b600160009054906101000a900473ffffffffffffffffffffffffffffffffffffffff1673ffffffffffffffffffffffffffffffffffffffff163373ffffffffffffffffffffffffffffffffffffffff16141515610ba257600080fd5b4283111515610bb057600080fd5b60018060166101000a81548160ff02191690831515021790555084600260006101000a81548173ffffffffffffffffffffffffffffffffffffffff021916908373ffffffffffffffffffffffffffffffffffffffff160217905550826005819055508160068190555083600460006101000a81548173ffffffffffffffffffffffffffffffffffffffff021916908373ffffffffffffffffffffffffffffffffffffffff1602179055505050505050565b60095481565b600b5481565b8173ffffffffffffffffffffffffffffffffffffffff166108fc829081150290604051600060405180830381858888f193505050501515610cad57600080fd5b50505600a165627a7a72305820fec03f40eebcc12425f7bad9cc0951cb6c3d74b5b1c48af421c3f0c9c984e05d0029",
  "source": "pragma solidity ^0.4.15;\n\nimport \"./ERC20.sol\";\n\n// Voting is quadratic\ncontract TokenPoll {\n\n  enum State { Uninitialized    // Waits token poll is parameterized\n             , Initialized      // Waits until vote allocation. Can't have Running/Voting before votes are allocated\n             , VoteAllocation   // Token balances should be frozen and users allocate votes during this period.\n             , Running          // After vote allocation but not voting\n             , Voting           // In voting state. Outcome is either State.Running or State.VoteFailed\n             , VoteFailed       // If this happens multisig escrow initiates refund\n\n             // Outcomes  \n             , Successful       // End of polls\n             , Refunding        // Users can withdraw remaining balance\n             }\n\n  // =====\n  // State\n  // =====  \n\n  mapping (address => uint) public userTokenBalance; // user -> token balance\n\n  address initializer;               // Owner function.. used to initialize\n  bool refundFlag;                   // keep track of state\n  bool voteFailedFlag;               // \"\n  bool initialized;                  // if contract is initialized with parameters\n\n  ERC20 public tokenContract;        // Voting power is based on token ownership count\n\n  uint public totalRefund;           // Total size of refund\n\n  address public escrow;             // Initiate escrow to send funds to ICO wallet\n\n  uint public allocStartTime;        // Start/end of voting allocation\n  uint public allocEndTime;          // \"\n\n  uint public userCount;             // Used for keeping track of quorum\n  uint public totalTokenCount;       // Count of all tokens registered for vote\n  uint public totalVotePower;        // Total voting power of users\n  mapping (address => bool) voted;   // User has voted\n  uint public yesVotes;              // \n  uint public noVotes;               // \n\n  // ======================\n  // Constructor & fallback\n  // ======================\n\n  function TokenPoll(address _initializer) public { initializer = _initializer; }\n\n  function initialize(address _token, address _escrow, uint _allocStartTime, uint _allocEndTime) public inState(State.Uninitialized) {\n    require(msg.sender == initializer);\n    require(_allocStartTime > now);\n\n    initialized = true;\n    tokenContract = ERC20(_token);\n    allocStartTime = _allocStartTime;\n    allocEndTime = _allocEndTime;\n    escrow = _escrow;\n  }\n\n  // fallback\n  function () public { require(false); return; }\n\n  // =========\n  // Functions\n  // =========\n\n  // Users\n  function allocVotes() public inState(State.VoteAllocation){\n    require(userTokenBalance[msg.sender] == 0);  // user has not allocated before\n\n    uint userTokens = tokenContract.balanceOf(msg.sender);\n\n    // Removed code\n    // case where user repeats this 1) buys token 2) allocates votes\n    // - works if an individual user's balance never goes down\n    // totalVotePower  -= getUserVotePower(msg.sender);  \n    // totalTokenCount -= userTokenBalance[msg.sender];\n\n    // State changes\n    userTokenBalance[msg.sender] = userTokens;\n    totalVotePower  += getUserVotePower(msg.sender);\n    totalTokenCount += userTokens;\n    userCount += 1;\n  }\n\n  // todo vote window, vote params (qorem),\n  function castVote(bool value) {\n    require(voted[msg.sender] == false);\n\n    voted[msg.sender] = true;\n\n    if (value)\n      yesVotes += 1;\n    else\n      noVotes += 1;\n  }\n\n  function startRefund() public payable inState(State.VoteFailed) fromAddress(escrow) {\n    totalRefund = msg.value;\n    refundFlag = true;\n  }\n\n  function userRefund() public inState(State.Refunding) {\n    address user = msg.sender;\n    uint userTokenCount = userTokenBalance[user];\n\n    // Get tokens then clear. Reentrant safe\n    require(userTokenCount != 0);\n    userTokenBalance[user] = 0;\n\n    // refund\n    uint refundSize = totalRefund * userTokenCount / totalTokenCount;\n    untrustedSendEth(user, refundSize);  // untrusted external call\n  }\n\n  //  function voteSuccessful() {}\n  //     if (voteDecided and QuoremReached) State.Running, sendBalanceTo\n\n  // =======\n  // Getters\n  // =======\n\n  function getState() public view returns (State) {\n    if (!initialized)          return State.Uninitialized;\n    if (now < allocStartTime)  return State.Initialized;\n\n    if (allocStartTime < now \n        && now < allocEndTime) return State.VoteAllocation;\n\n    if (refundFlag)            return State.Refunding;\n    if (now > allocEndTime)    return State.Running;\n\n    else                       return State.Successful;\n  }\n\n  function getUserVotePower(address user) public view returns (uint) {\n    return sqrt(userTokenBalance[user]);\n  }\n\n  // y = floor(sqrt(x))\n  function sqrt(uint x) public pure returns (uint) {\n    uint z = (x + 1) / 2;\n    uint y = x;\n    \n    while (z < y) {\n      y = z;\n      z = (x / z + z) / 2;\n    }\n    \n    return y;\n  }\n\n  \n  // ================\n  // Internal/private\n  // ================\n\n  // This must be private. 'private' must not be removed\n  function untrustedSendEth(address a, uint v) private { require(a.send(v)); } // untrusted external call\n\n  // Modifiers\n  modifier inState(State s) {\n    require(getState() == s);\n    _;\n  }\n\n  modifier fromAddress(address _escrow) {\n    require(escrow == _escrow);\n    _;\n  }\n\n}\n",
  "sourcePath": "/home/nick/workspace/dapps/TokenPoll/contracts/TokenPoll.sol",
  "compiler": {
    "name": "solc",
    "version": "0.4.19+commit.c4cbbb05.Emscripten.clang"
  },
  "schemaVersion": "2.0.0",
  "updatedAt": "2018-04-04T07:22:46.869Z"
}