{
  "contractName": "TokenPoll",
  "abi": [
    {
      "constant": true,
      "inputs": [],
      "name": "totalRefund",
      "outputs": [
        {
          "name": "",
          "type": "uint256"
        }
      ],
      "payable": false,
      "stateMutability": "view",
      "type": "function"
    },
    {
      "constant": true,
      "inputs": [],
      "name": "userCount",
      "outputs": [
        {
          "name": "",
          "type": "uint256"
        }
      ],
      "payable": false,
      "stateMutability": "view",
      "type": "function"
    },
    {
      "constant": true,
      "inputs": [],
      "name": "allocEndTime",
      "outputs": [
        {
          "name": "",
          "type": "uint256"
        }
      ],
      "payable": false,
      "stateMutability": "view",
      "type": "function"
    },
    {
      "constant": true,
      "inputs": [],
      "name": "allocStartTime",
      "outputs": [
        {
          "name": "",
          "type": "uint256"
        }
      ],
      "payable": false,
      "stateMutability": "view",
      "type": "function"
    },
    {
      "constant": true,
      "inputs": [
        {
          "name": "",
          "type": "address"
        }
      ],
      "name": "userTokenBalance",
      "outputs": [
        {
          "name": "",
          "type": "uint256"
        }
      ],
      "payable": false,
      "stateMutability": "view",
      "type": "function"
    },
    {
      "constant": true,
      "inputs": [],
      "name": "tokenContract",
      "outputs": [
        {
          "name": "",
          "type": "address"
        }
      ],
      "payable": false,
      "stateMutability": "view",
      "type": "function"
    },
    {
      "constant": true,
      "inputs": [],
      "name": "totalTokenCount",
      "outputs": [
        {
          "name": "",
          "type": "uint256"
        }
      ],
      "payable": false,
      "stateMutability": "view",
      "type": "function"
    },
    {
      "constant": true,
      "inputs": [],
      "name": "noVotes",
      "outputs": [
        {
          "name": "",
          "type": "uint256"
        }
      ],
      "payable": false,
      "stateMutability": "view",
      "type": "function"
    },
    {
      "constant": true,
      "inputs": [],
      "name": "escrow",
      "outputs": [
        {
          "name": "",
          "type": "address"
        }
      ],
      "payable": false,
      "stateMutability": "view",
      "type": "function"
    },
    {
      "constant": true,
      "inputs": [],
      "name": "totalVotePower",
      "outputs": [
        {
          "name": "",
          "type": "uint256"
        }
      ],
      "payable": false,
      "stateMutability": "view",
      "type": "function"
    },
    {
      "constant": true,
      "inputs": [],
      "name": "yesVotes",
      "outputs": [
        {
          "name": "",
          "type": "uint256"
        }
      ],
      "payable": false,
      "stateMutability": "view",
      "type": "function"
    },
    {
      "inputs": [
        {
          "name": "_token",
          "type": "address"
        },
        {
          "name": "_escrow",
          "type": "address"
        },
        {
          "name": "_allocStartTime",
          "type": "uint256"
        },
        {
          "name": "_allocEndTime",
          "type": "uint256"
        }
      ],
      "payable": false,
      "stateMutability": "nonpayable",
      "type": "constructor"
    },
    {
      "payable": false,
      "stateMutability": "nonpayable",
      "type": "fallback"
    },
    {
      "constant": false,
      "inputs": [],
      "name": "allocVotes",
      "outputs": [],
      "payable": false,
      "stateMutability": "nonpayable",
      "type": "function"
    },
    {
      "constant": false,
      "inputs": [
        {
          "name": "voteFor",
          "type": "bool"
        }
      ],
      "name": "userVote",
      "outputs": [],
      "payable": false,
      "stateMutability": "nonpayable",
      "type": "function"
    },
    {
      "constant": false,
      "inputs": [],
      "name": "startRefund",
      "outputs": [],
      "payable": true,
      "stateMutability": "payable",
      "type": "function"
    },
    {
      "constant": false,
      "inputs": [],
      "name": "userRefund",
      "outputs": [],
      "payable": false,
      "stateMutability": "nonpayable",
      "type": "function"
    },
    {
      "constant": true,
      "inputs": [],
      "name": "getState",
      "outputs": [
        {
          "name": "",
          "type": "uint8"
        }
      ],
      "payable": false,
      "stateMutability": "view",
      "type": "function"
    },
    {
      "constant": true,
      "inputs": [
        {
          "name": "user",
          "type": "address"
        }
      ],
      "name": "getUserVotePower",
      "outputs": [
        {
          "name": "",
          "type": "uint256"
        }
      ],
      "payable": false,
      "stateMutability": "view",
      "type": "function"
    },
    {
      "constant": true,
      "inputs": [
        {
          "name": "x",
          "type": "uint256"
        }
      ],
      "name": "sqrt",
      "outputs": [
        {
          "name": "",
          "type": "uint256"
        }
      ],
      "payable": false,
      "stateMutability": "pure",
      "type": "function"
    }
  ],
  "bytecode": "0x6060604052341561000f57600080fd5b604051608080610b828339810160405280805190602001909190805190602001909190805190602001909190805190602001909190505083600160026101000a81548173ffffffffffffffffffffffffffffffffffffffff021916908373ffffffffffffffffffffffffffffffffffffffff160217905550816004819055508060058190555082600360006101000a81548173ffffffffffffffffffffffffffffffffffffffff021916908373ffffffffffffffffffffffffffffffffffffffff16021790555050505050610a99806100e96000396000f3006060604052600436106100fc576000357c0100000000000000000000000000000000000000000000000000000000900463ffffffff16806301541fe31461011657806307973ccf1461013f5780631865c57d1461016857806324e3eb641461019f5780632790c642146101c857806329a87023146101f157806332f3e20d1461023e57806355a373d61461025357806360f8dab7146102a8578063677342ce146102bd578063764912ef146102f45780638446d57a1461031d578063adf4a14414610342578063b5b47f421461034c578063e2fdcc1714610375578063eab6d716146103ca578063f5f3d4f714610417578063fb286c6514610440575b341561010757600080fd5b6000151561011457600080fd5b005b341561012157600080fd5b610129610469565b6040518082815260200191505060405180910390f35b341561014a57600080fd5b61015261046f565b6040518082815260200191505060405180910390f35b341561017357600080fd5b61017b610475565b6040518082600681111561018b57fe5b60ff16815260200191505060405180910390f35b34156101aa57600080fd5b6101b26104e3565b6040518082815260200191505060405180910390f35b34156101d357600080fd5b6101db6104e9565b6040518082815260200191505060405180910390f35b34156101fc57600080fd5b610228600480803573ffffffffffffffffffffffffffffffffffffffff169060200190919050506104ef565b6040518082815260200191505060405180910390f35b341561024957600080fd5b610251610507565b005b341561025e57600080fd5b6102666106e5565b604051808273ffffffffffffffffffffffffffffffffffffffff1673ffffffffffffffffffffffffffffffffffffffff16815260200191505060405180910390f35b34156102b357600080fd5b6102bb61070b565b005b34156102c857600080fd5b6102de60048080359060200190919050506107d5565b6040518082815260200191505060405180910390f35b34156102ff57600080fd5b610307610826565b6040518082815260200191505060405180910390f35b341561032857600080fd5b6103406004808035151590602001909190505061082c565b005b61034a610914565b005b341561035757600080fd5b61035f6109e5565b6040518082815260200191505060405180910390f35b341561038057600080fd5b6103886109eb565b604051808273ffffffffffffffffffffffffffffffffffffffff1673ffffffffffffffffffffffffffffffffffffffff16815260200191505060405180910390f35b34156103d557600080fd5b610401600480803573ffffffffffffffffffffffffffffffffffffffff16906020019091905050610a11565b6040518082815260200191505060405180910390f35b341561042257600080fd5b61042a610a61565b6040518082815260200191505060405180910390f35b341561044b57600080fd5b610453610a67565b6040518082815260200191505060405180910390f35b60025481565b60065481565b600060045442101561048a57600090506104e0565b4260045410801561049c575060055442105b156104aa57600190506104e0565b600160009054906101000a900460ff16156104c857600590506104e0565b6005544211156104db57600290506104e0565b600690505b90565b60055481565b60045481565b60006020528060005260406000206000915090505481565b6000600180600681111561051757fe5b61051f610475565b600681111561052a57fe5b14151561053657600080fd5b60008060003373ffffffffffffffffffffffffffffffffffffffff1673ffffffffffffffffffffffffffffffffffffffff1681526020019081526020016000205414151561058357600080fd5b600160029054906101000a900473ffffffffffffffffffffffffffffffffffffffff1673ffffffffffffffffffffffffffffffffffffffff166370a08231336000604051602001526040518263ffffffff167c0100000000000000000000000000000000000000000000000000000000028152600401808273ffffffffffffffffffffffffffffffffffffffff1673ffffffffffffffffffffffffffffffffffffffff168152602001915050602060405180830381600087803b151561064857600080fd5b6102c65a03f1151561065957600080fd5b505050604051805190509150816000803373ffffffffffffffffffffffffffffffffffffffff1673ffffffffffffffffffffffffffffffffffffffff168152602001908152602001600020819055506106b133610a11565b6008600082825401925050819055508160076000828254019250508190555060016006600082825401925050819055505050565b600160029054906101000a900473ffffffffffffffffffffffffffffffffffffffff1681565b600080600580600681111561071c57fe5b610724610475565b600681111561072f57fe5b14151561073b57600080fd5b6000803373ffffffffffffffffffffffffffffffffffffffff1673ffffffffffffffffffffffffffffffffffffffff168152602001908152602001600020549250600754836002540281151561078d57fe5b0491503373ffffffffffffffffffffffffffffffffffffffff166108fc839081150290604051600060405180830381858888f1935050505015156107d057600080fd5b505050565b60008060006002600185018115156107e957fe5b0491508390505b8082101561081c57819050600282838681151561080957fe5b040181151561081457fe5b0491506107f0565b8092505050919050565b60075481565b60001515600960003373ffffffffffffffffffffffffffffffffffffffff1673ffffffffffffffffffffffffffffffffffffffff16815260200190815260200160002060009054906101000a900460ff16151514151561088b57600080fd5b6001600960003373ffffffffffffffffffffffffffffffffffffffff1673ffffffffffffffffffffffffffffffffffffffff16815260200190815260200160002060006101000a81548160ff02191690831515021790555080156108ff576001600a60008282540192505081905550610911565b6001600b600082825401925050819055505b50565b600480600681111561092257fe5b61092a610475565b600681111561093557fe5b14151561094157600080fd5b600360009054906101000a900473ffffffffffffffffffffffffffffffffffffffff168073ffffffffffffffffffffffffffffffffffffffff16600360009054906101000a900473ffffffffffffffffffffffffffffffffffffffff1673ffffffffffffffffffffffffffffffffffffffff161415156109c057600080fd5b3460028190555060018060006101000a81548160ff0219169083151502179055505050565b600b5481565b600360009054906101000a900473ffffffffffffffffffffffffffffffffffffffff1681565b6000610a5a6000808473ffffffffffffffffffffffffffffffffffffffff1673ffffffffffffffffffffffffffffffffffffffff168152602001908152602001600020546107d5565b9050919050565b60085481565b600a54815600a165627a7a7230582005de835d3b8b2807c12fe4cf06eac4c25fb5d9b17388e2fb4ae387dc964c43350029",
  "source": "pragma solidity ^0.4.15;\n\nimport \"./ERC20.sol\";\n\n// Voting is quadratic\ncontract TokenPoll {\n\n  enum State { Start            // Waits until vote allocation. Can't have Running/Voting before votes are allocated\n             , VoteAllocation   // Token balances should be frozen and users allocate votes during this period.\n             , Running          // After vote allocation but not voting\n             , Voting           // In voting state. Outcome is either State.Running or State.VoteFailed\n             , VoteFailed       // If this happens multisig escrow initiates refund\n             , Refund           // Users can withdraw remaining balance\n             , End }            // End of polls\n\n  // =====\n  // State\n  // =====  \n\n  mapping (address => uint) public userTokenBalance; // user -> token balance\n\n  bool refundFlag;                   // keep track of state\n  bool voteFailedFlag;               // \"\n\n  ERC20 public tokenContract;        // Voting power is based on token ownership count\n\n  uint public totalRefund;           // Total size of refund\n\n  address public escrow;             // Initiate escrow to send funds to ICO wallet\n\n  uint public allocStartTime;        // Start/end of voting allocation\n  uint public allocEndTime;          // \"\n\n  uint public userCount;             // Used for keeping track of quorum\n  uint public totalTokenCount;       // Count of all tokens registered for vote\n  uint public totalVotePower;        // Total voting power of users\n  mapping (address => bool) voted;   // User has voted\n  uint public yesVotes;              // \n  uint public noVotes;               // \n\n  // ======================\n  // Constructor & fallback\n  // ======================\n\n  function TokenPoll(address _token, address _escrow, uint _allocStartTime, uint _allocEndTime) public {\n    tokenContract = ERC20(_token);\n    allocStartTime = _allocStartTime;\n    allocEndTime = _allocEndTime;\n    escrow = _escrow;\n  }\n\n  // fallback\n  function () public { require(false); return; }\n\n  // =========\n  // Functions\n  // =========\n\n  // Users\n  function allocVotes() public inState(State.VoteAllocation){\n    require(userTokenBalance[msg.sender] == 0);  // user has not allocated before\n\n    uint userTokens = tokenContract.balanceOf(msg.sender);\n\n    // Removed code\n    // case where user repeats this 1) buys token 2) allocates votes\n    // - works if an individual user's balance never goes down\n    // totalVotePower  -= getUserVotePower(msg.sender);  \n    // totalTokenCount -= userTokenBalance[msg.sender];\n\n    // State changes\n    userTokenBalance[msg.sender] = userTokens;\n    totalVotePower  += getUserVotePower(msg.sender);\n    totalTokenCount += userTokens;\n    userCount += 1;\n  }\n\n  // todo vote window, vote params (qorem),\n  function userVote(bool voteFor) {\n    require(voted[msg.sender] == false);\n\n    voted[msg.sender] = true;\n\n    if (voteFor)\n      yesVotes += 1;\n    else\n      noVotes += 1;\n  }\n\n  function startRefund() public payable inState(State.VoteFailed) fromAddress(escrow) {\n    totalRefund = msg.value;\n    refundFlag = true;\n  }\n\n  function userRefund() public inState(State.Refund) {\n    uint userTokenCount = userTokenBalance[msg.sender];\n    uint refundSize = totalRefund * userTokenCount / totalTokenCount;\n\n    // refund\n    require(msg.sender.send(refundSize));\n  }\n\n  //  function voteSuccessful() {}\n  //     if (voteDecided and QuoremReached) State.Running, sendBalanceTo\n\n  // =======\n  // Getters\n  // =======\n\n  function getState() public view returns (State) {\n    if (now < allocStartTime) \n      return State.Start;\n    if (allocStartTime < now && now < allocEndTime) \n      return State.VoteAllocation;\n\n    if (refundFlag)\n      return State.Refund;\n    if (now > allocEndTime) \n      return State.Running;\n\n    return State.End;\n  }\n\n  function getUserVotePower(address user) public view returns (uint) {\n    return sqrt(userTokenBalance[user]);\n  }\n\n  // y = floor(sqrt(x))\n  function sqrt(uint x) public pure returns (uint) {\n    uint z = (x + 1) / 2;\n    uint y = x;\n    \n    while (z < y) {\n      y = z;\n      z = (x / z + z) / 2;\n    }\n    \n    return y;\n  }\n\n  \n  // ================\n  // Internal/private\n  // ================\n\n  // Modifiers\n  modifier inState(State s) {\n    require(getState() == s);\n    _;\n  }\n\n  modifier fromAddress(address _escrow) {\n    require(escrow == _escrow);\n    _;\n  }\n\n}\n",
  "sourcePath": "/home/nick/workspace/dapps/nick/TokenPoll/contracts/TokenPoll.sol",
  "compiler": {
    "name": "solc",
    "version": "0.4.19+commit.c4cbbb05.Emscripten.clang"
  },
  "schemaVersion": "2.0.0",
  "updatedAt": "2018-03-16T01:49:01.999Z"
}