{
  "contractName": "TokenPoll",
  "abi": [
    {
      "constant": true,
      "inputs": [],
      "name": "totalRefund",
      "outputs": [
        {
          "name": "",
          "type": "uint256"
        }
      ],
      "payable": false,
      "stateMutability": "view",
      "type": "function"
    },
    {
      "constant": true,
      "inputs": [],
      "name": "userCount",
      "outputs": [
        {
          "name": "",
          "type": "uint256"
        }
      ],
      "payable": false,
      "stateMutability": "view",
      "type": "function"
    },
    {
      "constant": true,
      "inputs": [],
      "name": "allocEndTime",
      "outputs": [
        {
          "name": "",
          "type": "uint256"
        }
      ],
      "payable": false,
      "stateMutability": "view",
      "type": "function"
    },
    {
      "constant": true,
      "inputs": [],
      "name": "allocStartTime",
      "outputs": [
        {
          "name": "",
          "type": "uint256"
        }
      ],
      "payable": false,
      "stateMutability": "view",
      "type": "function"
    },
    {
      "constant": true,
      "inputs": [
        {
          "name": "",
          "type": "address"
        }
      ],
      "name": "userTokenBalance",
      "outputs": [
        {
          "name": "",
          "type": "uint256"
        }
      ],
      "payable": false,
      "stateMutability": "view",
      "type": "function"
    },
    {
      "constant": true,
      "inputs": [],
      "name": "tokenContract",
      "outputs": [
        {
          "name": "",
          "type": "address"
        }
      ],
      "payable": false,
      "stateMutability": "view",
      "type": "function"
    },
    {
      "constant": true,
      "inputs": [],
      "name": "totalTokenCount",
      "outputs": [
        {
          "name": "",
          "type": "uint256"
        }
      ],
      "payable": false,
      "stateMutability": "view",
      "type": "function"
    },
    {
      "constant": true,
      "inputs": [
        {
          "name": "",
          "type": "address"
        }
      ],
      "name": "voted",
      "outputs": [
        {
          "name": "",
          "type": "bool"
        }
      ],
      "payable": false,
      "stateMutability": "view",
      "type": "function"
    },
    {
      "constant": true,
      "inputs": [],
      "name": "noVotes",
      "outputs": [
        {
          "name": "",
          "type": "uint256"
        }
      ],
      "payable": false,
      "stateMutability": "view",
      "type": "function"
    },
    {
      "constant": true,
      "inputs": [],
      "name": "escrow",
      "outputs": [
        {
          "name": "",
          "type": "address"
        }
      ],
      "payable": false,
      "stateMutability": "view",
      "type": "function"
    },
    {
      "constant": true,
      "inputs": [],
      "name": "totalVotePower",
      "outputs": [
        {
          "name": "",
          "type": "uint256"
        }
      ],
      "payable": false,
      "stateMutability": "view",
      "type": "function"
    },
    {
      "constant": true,
      "inputs": [],
      "name": "yesVotes",
      "outputs": [
        {
          "name": "",
          "type": "uint256"
        }
      ],
      "payable": false,
      "stateMutability": "view",
      "type": "function"
    },
    {
      "inputs": [
        {
          "name": "_initializer",
          "type": "address"
        }
      ],
      "payable": false,
      "stateMutability": "nonpayable",
      "type": "constructor"
    },
    {
      "payable": false,
      "stateMutability": "nonpayable",
      "type": "fallback"
    },
    {
      "constant": false,
      "inputs": [
        {
          "name": "_token",
          "type": "address"
        },
        {
          "name": "_escrow",
          "type": "address"
        },
        {
          "name": "_allocStartTime",
          "type": "uint256"
        },
        {
          "name": "_allocEndTime",
          "type": "uint256"
        }
      ],
      "name": "initialize",
      "outputs": [],
      "payable": false,
      "stateMutability": "nonpayable",
      "type": "function"
    },
    {
      "constant": false,
      "inputs": [],
      "name": "allocVotes",
      "outputs": [],
      "payable": false,
      "stateMutability": "nonpayable",
      "type": "function"
    },
    {
      "constant": false,
      "inputs": [
        {
          "name": "value",
          "type": "bool"
        }
      ],
      "name": "castVote",
      "outputs": [],
      "payable": false,
      "stateMutability": "nonpayable",
      "type": "function"
    },
    {
      "constant": false,
      "inputs": [],
      "name": "startRefund",
      "outputs": [],
      "payable": true,
      "stateMutability": "payable",
      "type": "function"
    },
    {
      "constant": false,
      "inputs": [],
      "name": "userRefund",
      "outputs": [],
      "payable": false,
      "stateMutability": "nonpayable",
      "type": "function"
    },
    {
      "constant": true,
      "inputs": [],
      "name": "getState",
      "outputs": [
        {
          "name": "",
          "type": "uint8"
        }
      ],
      "payable": false,
      "stateMutability": "view",
      "type": "function"
    },
    {
      "constant": true,
      "inputs": [
        {
          "name": "user",
          "type": "address"
        }
      ],
      "name": "getUserVotePower",
      "outputs": [
        {
          "name": "",
          "type": "uint256"
        }
      ],
      "payable": false,
      "stateMutability": "view",
      "type": "function"
    },
    {
      "constant": true,
      "inputs": [
        {
          "name": "x",
          "type": "uint256"
        }
      ],
      "name": "sqrt",
      "outputs": [
        {
          "name": "",
          "type": "uint256"
        }
      ],
      "payable": false,
      "stateMutability": "pure",
      "type": "function"
    }
  ],
  "bytecode": "0x6060604052341561000f57600080fd5b604051602080610dd58339810160405280805190602001909190505080600160006101000a81548173ffffffffffffffffffffffffffffffffffffffff021916908373ffffffffffffffffffffffffffffffffffffffff16021790555050610d598061007c6000396000f300606060405260043610610112576000357c0100000000000000000000000000000000000000000000000000000000900463ffffffff16806301541fe31461012c57806307973ccf146101555780631865c57d1461017e57806324e3eb64146101b55780632790c642146101de57806329a870231461020757806332f3e20d1461025457806355a373d61461026957806360f8dab7146102be578063677342ce146102d3578063764912ef1461030a5780637ace48e714610333578063adf4a14414610358578063aec2ccae14610362578063b5b47f42146103b3578063e2fdcc17146103dc578063eab6d71614610431578063eb990c591461047e578063f5f3d4f7146104e8578063fb286c6514610511575b341561011d57600080fd5b6000151561012a57600080fd5b005b341561013757600080fd5b61013f61053a565b6040518082815260200191505060405180910390f35b341561016057600080fd5b610168610540565b6040518082815260200191505060405180910390f35b341561018957600080fd5b610191610546565b604051808260078111156101a157fe5b60ff16815260200191505060405180910390f35b34156101c057600080fd5b6101c86105d3565b6040518082815260200191505060405180910390f35b34156101e957600080fd5b6101f16105d9565b6040518082815260200191505060405180910390f35b341561021257600080fd5b61023e600480803573ffffffffffffffffffffffffffffffffffffffff169060200190919050506105df565b6040518082815260200191505060405180910390f35b341561025f57600080fd5b6102676105f7565b005b341561027457600080fd5b61027c6107d5565b604051808273ffffffffffffffffffffffffffffffffffffffff1673ffffffffffffffffffffffffffffffffffffffff16815260200191505060405180910390f35b34156102c957600080fd5b6102d16107fb565b005b34156102de57600080fd5b6102f460048080359060200190919050506108e9565b6040518082815260200191505060405180910390f35b341561031557600080fd5b61031d61093a565b6040518082815260200191505060405180910390f35b341561033e57600080fd5b61035660048080351515906020019091905050610940565b005b610360610a28565b005b341561036d57600080fd5b610399600480803573ffffffffffffffffffffffffffffffffffffffff16906020019091905050610af9565b604051808215151515815260200191505060405180910390f35b34156103be57600080fd5b6103c6610b19565b6040518082815260200191505060405180910390f35b34156103e757600080fd5b6103ef610b1f565b604051808273ffffffffffffffffffffffffffffffffffffffff1673ffffffffffffffffffffffffffffffffffffffff16815260200191505060405180910390f35b341561043c57600080fd5b610468600480803573ffffffffffffffffffffffffffffffffffffffff16906020019091905050610b45565b6040518082815260200191505060405180910390f35b341561048957600080fd5b6104e6600480803573ffffffffffffffffffffffffffffffffffffffff1690602001909190803573ffffffffffffffffffffffffffffffffffffffff16906020019091908035906020019091908035906020019091905050610b95565b005b34156104f357600080fd5b6104fb610cdd565b6040518082815260200191505060405180910390f35b341561051c57600080fd5b610524610ce3565b6040518082815260200191505060405180910390f35b60035481565b60075481565b6000600160169054906101000a900460ff16151561056757600090506105d0565b60055442101561057a57600190506105d0565b4260055410801561058c575060065442105b1561059a57600290506105d0565b600160149054906101000a900460ff16156105b857600790506105d0565b6006544211156105cb57600390506105d0565b600690505b90565b60065481565b60055481565b60006020528060005260406000206000915090505481565b6000600280600781111561060757fe5b61060f610546565b600781111561061a57fe5b14151561062657600080fd5b60008060003373ffffffffffffffffffffffffffffffffffffffff1673ffffffffffffffffffffffffffffffffffffffff1681526020019081526020016000205414151561067357600080fd5b600260009054906101000a900473ffffffffffffffffffffffffffffffffffffffff1673ffffffffffffffffffffffffffffffffffffffff166370a08231336000604051602001526040518263ffffffff167c0100000000000000000000000000000000000000000000000000000000028152600401808273ffffffffffffffffffffffffffffffffffffffff1673ffffffffffffffffffffffffffffffffffffffff168152602001915050602060405180830381600087803b151561073857600080fd5b6102c65a03f1151561074957600080fd5b505050604051805190509150816000803373ffffffffffffffffffffffffffffffffffffffff1673ffffffffffffffffffffffffffffffffffffffff168152602001908152602001600020819055506107a133610b45565b6009600082825401925050819055508160086000828254019250508190555060016007600082825401925050819055505050565b600260009054906101000a900473ffffffffffffffffffffffffffffffffffffffff1681565b6000806000600780600781111561080e57fe5b610816610546565b600781111561082157fe5b14151561082d57600080fd5b3393506000808573ffffffffffffffffffffffffffffffffffffffff1673ffffffffffffffffffffffffffffffffffffffff1681526020019081526020016000205492506000831415151561088157600080fd5b60008060008673ffffffffffffffffffffffffffffffffffffffff1673ffffffffffffffffffffffffffffffffffffffff1681526020019081526020016000208190555060085483600354028115156108d657fe5b0491506108e38483610ce9565b50505050565b60008060006002600185018115156108fd57fe5b0491508390505b8082101561093057819050600282838681151561091d57fe5b040181151561092857fe5b049150610904565b8092505050919050565b60085481565b60001515600a60003373ffffffffffffffffffffffffffffffffffffffff1673ffffffffffffffffffffffffffffffffffffffff16815260200190815260200160002060009054906101000a900460ff16151514151561099f57600080fd5b6001600a60003373ffffffffffffffffffffffffffffffffffffffff1673ffffffffffffffffffffffffffffffffffffffff16815260200190815260200160002060006101000a81548160ff0219169083151502179055508015610a13576001600b60008282540192505081905550610a25565b6001600c600082825401925050819055505b50565b6005806007811115610a3657fe5b610a3e610546565b6007811115610a4957fe5b141515610a5557600080fd5b600460009054906101000a900473ffffffffffffffffffffffffffffffffffffffff168073ffffffffffffffffffffffffffffffffffffffff16600460009054906101000a900473ffffffffffffffffffffffffffffffffffffffff1673ffffffffffffffffffffffffffffffffffffffff16141515610ad457600080fd5b3460038190555060018060146101000a81548160ff0219169083151502179055505050565b600a6020528060005260406000206000915054906101000a900460ff1681565b600c5481565b600460009054906101000a900473ffffffffffffffffffffffffffffffffffffffff1681565b6000610b8e6000808473ffffffffffffffffffffffffffffffffffffffff1673ffffffffffffffffffffffffffffffffffffffff168152602001908152602001600020546108e9565b9050919050565b6000806007811115610ba357fe5b610bab610546565b6007811115610bb657fe5b141515610bc257600080fd5b600160009054906101000a900473ffffffffffffffffffffffffffffffffffffffff1673ffffffffffffffffffffffffffffffffffffffff163373ffffffffffffffffffffffffffffffffffffffff16141515610c1e57600080fd5b4283111515610c2c57600080fd5b60018060166101000a81548160ff02191690831515021790555084600260006101000a81548173ffffffffffffffffffffffffffffffffffffffff021916908373ffffffffffffffffffffffffffffffffffffffff160217905550826005819055508160068190555083600460006101000a81548173ffffffffffffffffffffffffffffffffffffffff021916908373ffffffffffffffffffffffffffffffffffffffff1602179055505050505050565b60095481565b600b5481565b8173ffffffffffffffffffffffffffffffffffffffff166108fc829081150290604051600060405180830381858888f193505050501515610d2957600080fd5b50505600a165627a7a723058208be713816b67cb7d677ee3aec61cb2e9ec1b5ac7f80f5ed51d8ed044eba6d64b0029",
  "source": "pragma solidity ^0.4.15;\n\nimport \"./ERC20.sol\";\n\n// Voting is quadratic\ncontract TokenPoll {\n\n  enum State { Uninitialized    // Waits token poll is parameterized\n             , Initialized      // Waits until vote allocation. Can't have Running/Voting before votes are allocated\n             , VoteAllocation   // Token balances should be frozen and users allocate votes during this period.\n             , Running          // After vote allocation but not voting\n             , Voting           // In voting state. Outcome is either State.Running or State.VoteFailed\n             , VoteFailed       // If this happens multisig escrow initiates refund\n\n             // Outcomes  \n             , Successful       // End of polls\n             , Refunding        // Users can withdraw remaining balance\n             }\n\n  // =====\n  // State\n  // =====  \n\n  mapping (address => uint) public userTokenBalance; // user -> token balance\n\n  address initializer;               // Owner function.. used to initialize\n  bool refundFlag;                   // keep track of state\n  bool voteFailedFlag;               // \"\n  bool initialized;                  // if contract is initialized with parameters\n\n  ERC20 public tokenContract;        // Voting power is based on token ownership count\n\n  uint public totalRefund;           // Total size of refund\n\n  address public escrow;             // Initiate escrow to send funds to ICO wallet\n\n  uint public allocStartTime;        // Start/end of voting allocation\n  uint public allocEndTime;          // \"\n\n  uint public userCount;             // Used for keeping track of quorum\n  uint public totalTokenCount;       // Count of all tokens registered for vote\n  uint public totalVotePower;        // Total voting power of users\n  mapping (address => bool) public voted;   // User has voted\n  uint public yesVotes;              // \n  uint public noVotes;               // \n\n  // ======================\n  // Constructor & fallback\n  // ======================\n\n  function TokenPoll(address _initializer) public { initializer = _initializer; }\n\n  function initialize(address _token, address _escrow, uint _allocStartTime, uint _allocEndTime) public inState(State.Uninitialized) {\n    require(msg.sender == initializer);\n    require(_allocStartTime > now);\n\n    initialized = true;\n    tokenContract = ERC20(_token);\n    allocStartTime = _allocStartTime;\n    allocEndTime = _allocEndTime;\n    escrow = _escrow;\n  }\n\n  // fallback\n  function () public { require(false); return; }\n\n  // =========\n  // Functions\n  // =========\n\n  // Users\n  function allocVotes() public inState(State.VoteAllocation){\n    require(userTokenBalance[msg.sender] == 0);  // user has not allocated before\n\n    uint userTokens = tokenContract.balanceOf(msg.sender);\n\n    // Removed code\n    // case where user repeats this 1) buys token 2) allocates votes\n    // - works if an individual user's balance never goes down\n    // totalVotePower  -= getUserVotePower(msg.sender);  \n    // totalTokenCount -= userTokenBalance[msg.sender];\n\n    // State changes\n    userTokenBalance[msg.sender] = userTokens;\n    totalVotePower  += getUserVotePower(msg.sender);\n    totalTokenCount += userTokens;\n    userCount += 1;\n  }\n\n  // todo vote window, vote params (qorem),\n  function castVote(bool value) {\n    require(voted[msg.sender] == false);\n\n    voted[msg.sender] = true;\n\n    if (value)\n      yesVotes += 1;\n    else\n      noVotes += 1;\n  }\n\n  function startRefund() public payable inState(State.VoteFailed) fromAddress(escrow) {\n    totalRefund = msg.value;\n    refundFlag = true;\n  }\n\n  function userRefund() public inState(State.Refunding) {\n    address user = msg.sender;\n    uint userTokenCount = userTokenBalance[user];\n\n    // Get tokens then clear. Reentrant safe\n    require(userTokenCount != 0);\n    userTokenBalance[user] = 0;\n\n    // refund\n    uint refundSize = totalRefund * userTokenCount / totalTokenCount;\n    untrustedSendEth(user, refundSize);  // untrusted external call\n  }\n\n  //  function voteSuccessful() {}\n  //     if (voteDecided and QuoremReached) State.Running, sendBalanceTo\n\n  // =======\n  // Getters\n  // =======\n\n  function getState() public view returns (State) {\n    if (!initialized)          return State.Uninitialized;\n    if (now < allocStartTime)  return State.Initialized;\n\n    if (allocStartTime < now \n        && now < allocEndTime) return State.VoteAllocation;\n\n    if (refundFlag)            return State.Refunding;\n    if (now > allocEndTime)    return State.Running;\n\n    else                       return State.Successful;\n  }\n\n  function getUserVotePower(address user) public view returns (uint) {\n    return sqrt(userTokenBalance[user]);\n  }\n\n  // y = floor(sqrt(x))\n  function sqrt(uint x) public pure returns (uint) {\n    uint z = (x + 1) / 2;\n    uint y = x;\n    \n    while (z < y) {\n      y = z;\n      z = (x / z + z) / 2;\n    }\n    \n    return y;\n  }\n\n  \n  // ================\n  // Internal/private\n  // ================\n\n  // This must be private. 'private' must not be removed\n  function untrustedSendEth(address a, uint v) private { require(a.send(v)); } // untrusted external call\n\n  // Modifiers\n  modifier inState(State s) {\n    require(getState() == s);\n    _;\n  }\n\n  modifier fromAddress(address _escrow) {\n    require(escrow == _escrow);\n    _;\n  }\n\n}\n",
  "sourcePath": "/home/nick/workspace/dapps/TokenPoll/contracts/TokenPoll.sol",
  "compiler": {
    "name": "solc",
    "version": "0.4.19+commit.c4cbbb05.Emscripten.clang"
  },
  "schemaVersion": "2.0.0",
  "updatedAt": "2018-04-09T16:57:13.323Z"
}