{
  "contractName": "TokenPollFactory",
  "abi": [
    {
      "constant": true,
      "inputs": [],
      "name": "stableCoin",
      "outputs": [
        {
          "name": "",
          "type": "address"
        }
      ],
      "payable": false,
      "stateMutability": "view",
      "type": "function",
      "signature": "0x992642e5"
    },
    {
      "inputs": [
        {
          "name": "_stableCoin",
          "type": "address"
        }
      ],
      "payable": false,
      "stateMutability": "nonpayable",
      "type": "constructor",
      "signature": "constructor"
    },
    {
      "anonymous": false,
      "inputs": [
        {
          "indexed": true,
          "name": "owner",
          "type": "address"
        },
        {
          "indexed": false,
          "name": "tokenPoll",
          "type": "address"
        }
      ],
      "name": "TokenPollCreated",
      "type": "event",
      "signature": "0x7564a76079f912cbe2d4cab94216340ff1c978c197ef4b5784d669a00dcb0ed5"
    },
    {
      "constant": false,
      "inputs": [],
      "name": "createTokenPoll",
      "outputs": [
        {
          "name": "owner",
          "type": "address"
        },
        {
          "name": "tokenPoll",
          "type": "address"
        }
      ],
      "payable": false,
      "stateMutability": "nonpayable",
      "type": "function",
      "signature": "0xf3a03d28"
    }
  ],
  "bytecode": "0x608060405234801561001057600080fd5b50604051602080612be98339810180604052602081101561003057600080fd5b8101908080519060200190929190505050806000806101000a81548173ffffffffffffffffffffffffffffffffffffffff021916908373ffffffffffffffffffffffffffffffffffffffff16021790555050612b58806100916000396000f3fe60806040526004361061004c576000357c0100000000000000000000000000000000000000000000000000000000900463ffffffff168063992642e514610051578063f3a03d28146100a8575b600080fd5b34801561005d57600080fd5b50610066610132565b604051808273ffffffffffffffffffffffffffffffffffffffff1673ffffffffffffffffffffffffffffffffffffffff16815260200191505060405180910390f35b3480156100b457600080fd5b506100bd610157565b604051808373ffffffffffffffffffffffffffffffffffffffff1673ffffffffffffffffffffffffffffffffffffffff1681526020018273ffffffffffffffffffffffffffffffffffffffff1673ffffffffffffffffffffffffffffffffffffffff1681526020019250505060405180910390f35b6000809054906101000a900473ffffffffffffffffffffffffffffffffffffffff1681565b60008060008060009054906101000a900473ffffffffffffffffffffffffffffffffffffffff16610186610347565b808273ffffffffffffffffffffffffffffffffffffffff1673ffffffffffffffffffffffffffffffffffffffff168152602001915050604051809103906000f0801580156101d8573d6000803e3d6000fd5b5090508073ffffffffffffffffffffffffffffffffffffffff1663f2fde38b336040518263ffffffff167c0100000000000000000000000000000000000000000000000000000000028152600401808273ffffffffffffffffffffffffffffffffffffffff1673ffffffffffffffffffffffffffffffffffffffff1681526020019150506040805180830381600087803b15801561027557600080fd5b505af1158015610289573d6000803e3d6000fd5b505050506040513d604081101561029f57600080fd5b81019080805190602001909291908051906020019092919050505050503392508091508273ffffffffffffffffffffffffffffffffffffffff167f7564a76079f912cbe2d4cab94216340ff1c978c197ef4b5784d669a00dcb0ed583604051808273ffffffffffffffffffffffffffffffffffffffff1673ffffffffffffffffffffffffffffffffffffffff16815260200191505060405180910390a2828292509250509091565b6040516127d5806103588339019056fe608060405234801561001057600080fd5b506040516020806127d58339810180604052602081101561003057600080fd5b8101908080519060200190929190505050336000806101000a81548173ffffffffffffffffffffffffffffffffffffffff021916908373ffffffffffffffffffffffffffffffffffffffff16021790555080600760006101000a81548173ffffffffffffffffffffffffffffffffffffffff021916908373ffffffffffffffffffffffffffffffffffffffff1602179055506001600060166101000a81548160ff021916908315150217905550506126e8806100ed6000396000f3fe60806040526004361061020f576000357c0100000000000000000000000000000000000000000000000000000000900463ffffffff16806301541fe31461022b57806307973ccf1461025657806308e6b9d2146102815780630c525008146102ac5780630ee29404146102c35780631794bb3c146103405780631865c57d146103bb57806324e3eb64146103f457806325e00fe51461041f5780632790c6421461044a57806329a870231461047557806332f3e20d146104da578063331feaad146104f1578063380dd9011461050857806338a4063d146105335780633977b48a1461055e57806355e3f0861461058957806360f8dab7146105a0578063677342ce14610631578063764912ef14610680578063771af17b146106ab5780637ace48e7146106c2578063893d20e8146107585780638979fa2e146107af5780638ee7e59714610824578063992642e5146108535780639a1fe879146108aa5780639ba50d3c146108d55780639c4780d81461093a578063b5b47f4214610965578063ccd9e08214610990578063cf06267714610a0d578063cf56334314610a38578063d004089a14610a67578063d060be0914610a92578063e2fdcc1714610abd578063eab6d71614610b14578063ee1ed84914610b79578063efd6c0eb14610ba8578063f2fde38b14610bff578063f5f3d4f714610cc3578063f7cb789a14610cee578063fb286c6514610d19575b34801561021b57600080fd5b506000151561022957600080fd5b005b34801561023757600080fd5b50610240610d44565b6040518082815260200191505060405180910390f35b34801561026257600080fd5b5061026b610d4a565b6040518082815260200191505060405180910390f35b34801561028d57600080fd5b50610296610d50565b6040518082815260200191505060405180910390f35b3480156102b857600080fd5b506102c1610d55565b005b3480156102cf57600080fd5b50610326600480360360608110156102e657600080fd5b81019080803573ffffffffffffffffffffffffffffffffffffffff1690602001909291908035906020019092919080359060200190929190505050610d67565b604051808215151515815260200191505060405180910390f35b34801561034c57600080fd5b506103b96004803603606081101561036357600080fd5b81019080803573ffffffffffffffffffffffffffffffffffffffff169060200190929190803573ffffffffffffffffffffffffffffffffffffffff16906020019092919080359060200190929190505050610da3565b005b3480156103c757600080fd5b506103d0610f26565b604051808260078111156103e057fe5b60ff16815260200191505060405180910390f35b34801561040057600080fd5b50610409611011565b6040518082815260200191505060405180910390f35b34801561042b57600080fd5b50610434611017565b6040518082815260200191505060405180910390f35b34801561045657600080fd5b5061045f61101d565b6040518082815260200191505060405180910390f35b34801561048157600080fd5b506104c46004803603602081101561049857600080fd5b81019080803573ffffffffffffffffffffffffffffffffffffffff169060200190929190505050611023565b6040518082815260200191505060405180910390f35b3480156104e657600080fd5b506104ef61103b565b005b3480156104fd57600080fd5b50610506611239565b005b34801561051457600080fd5b5061051d61124b565b6040518082815260200191505060405180910390f35b34801561053f57600080fd5b50610548611251565b6040518082815260200191505060405180910390f35b34801561056a57600080fd5b5061057361126f565b6040518082815260200191505060405180910390f35b34801561059557600080fd5b5061059e611276565b005b3480156105ac57600080fd5b506105b5611280565b604051808473ffffffffffffffffffffffffffffffffffffffff1673ffffffffffffffffffffffffffffffffffffffff1681526020018373ffffffffffffffffffffffffffffffffffffffff1673ffffffffffffffffffffffffffffffffffffffff168152602001828152602001935050505060405180910390f35b34801561063d57600080fd5b5061066a6004803603602081101561065457600080fd5b8101908080359060200190929190505050611533565b6040518082815260200191505060405180910390f35b34801561068c57600080fd5b50610695611594565b6040518082815260200191505060405180910390f35b3480156106b757600080fd5b506106c061159a565b005b3480156106ce57600080fd5b506106fd600480360360208110156106e557600080fd5b810190808035151590602001909291905050506115a4565b604051808573ffffffffffffffffffffffffffffffffffffffff1673ffffffffffffffffffffffffffffffffffffffff1681526020018481526020018381526020018215151515815260200194505050505060405180910390f35b34801561076457600080fd5b5061076d6117bc565b604051808273ffffffffffffffffffffffffffffffffffffffff1673ffffffffffffffffffffffffffffffffffffffff16815260200191505060405180910390f35b3480156107bb57600080fd5b506107f2600480360360408110156107d257600080fd5b8101908080359060200190929190803590602001909291905050506117cb565b604051808681526020018581526020018481526020018381526020018281526020019550505050505060405180910390f35b34801561083057600080fd5b50610839611a55565b604051808215151515815260200191505060405180910390f35b34801561085f57600080fd5b50610868611a68565b604051808273ffffffffffffffffffffffffffffffffffffffff1673ffffffffffffffffffffffffffffffffffffffff16815260200191505060405180910390f35b3480156108b657600080fd5b506108bf611a8e565b6040518082815260200191505060405180910390f35b3480156108e157600080fd5b50610924600480360360208110156108f857600080fd5b81019080803573ffffffffffffffffffffffffffffffffffffffff169060200190929190505050611a94565b6040518082815260200191505060405180910390f35b34801561094657600080fd5b5061094f611b2c565b6040518082815260200191505060405180910390f35b34801561097157600080fd5b5061097a611b32565b6040518082815260200191505060405180910390f35b34801561099c57600080fd5b506109f3600480360360608110156109b357600080fd5b81019080803573ffffffffffffffffffffffffffffffffffffffff1690602001909291908035906020019092919080359060200190929190505050611b38565b604051808215151515815260200191505060405180910390f35b348015610a1957600080fd5b50610a22611bb2565b6040518082815260200191505060405180910390f35b348015610a4457600080fd5b50610a4d611bb8565b604051808215151515815260200191505060405180910390f35b348015610a7357600080fd5b50610a7c611bcb565b6040518082815260200191505060405180910390f35b348015610a9e57600080fd5b50610aa7611bd1565b6040518082815260200191505060405180910390f35b348015610ac957600080fd5b50610ad2611bdb565b604051808273ffffffffffffffffffffffffffffffffffffffff1673ffffffffffffffffffffffffffffffffffffffff16815260200191505060405180910390f35b348015610b2057600080fd5b50610b6360048036036020811015610b3757600080fd5b81019080803573ffffffffffffffffffffffffffffffffffffffff169060200190929190505050611c01565b6040518082815260200191505060405180910390f35b348015610b8557600080fd5b50610b8e611c52565b604051808215151515815260200191505060405180910390f35b348015610bb457600080fd5b50610bbd611c65565b604051808273ffffffffffffffffffffffffffffffffffffffff1673ffffffffffffffffffffffffffffffffffffffff16815260200191505060405180910390f35b348015610c0b57600080fd5b50610c4e60048036036020811015610c2257600080fd5b81019080803573ffffffffffffffffffffffffffffffffffffffff169060200190929190505050611c8b565b604051808373ffffffffffffffffffffffffffffffffffffffff1673ffffffffffffffffffffffffffffffffffffffff1681526020018273ffffffffffffffffffffffffffffffffffffffff1673ffffffffffffffffffffffffffffffffffffffff1681526020019250505060405180910390f35b348015610ccf57600080fd5b50610cd8611ca2565b6040518082815260200191505060405180910390f35b348015610cfa57600080fd5b50610d03611ca8565b6040518082815260200191505060405180910390f35b348015610d2557600080fd5b50610d2e611cae565b6040518082815260200191505060405180910390f35b60095481565b600c5481565b600181565b610d5d611cb4565b5050505050505050565b600f602052826000526040600020602052816000526040600020602052806000526040600020600092509250509054906101000a900460ff1681565b6000806007811115610db157fe5b610db9610f26565b6007811115610dc457fe5b141515610dd057600080fd5b6000809054906101000a900473ffffffffffffffffffffffffffffffffffffffff1673ffffffffffffffffffffffffffffffffffffffff163373ffffffffffffffffffffffffffffffffffffffff16141515610e2b57600080fd5b816004819055506001820160058190555060008060166101000a81548160ff0219169083151502179055506001600060156101000a81548160ff02191690831515021790555083600a60006101000a81548173ffffffffffffffffffffffffffffffffffffffff021916908373ffffffffffffffffffffffffffffffffffffffff16021790555082600860006101000a81548173ffffffffffffffffffffffffffffffffffffffff021916908373ffffffffffffffffffffffffffffffffffffffff160217905550600280819055506001600381905550610f1a62ed4e00600554611e6890919063ffffffff16565b60068190555050505050565b600080610f31611bd1565b90506000610f3d611251565b9050600060169054906101000a900460ff1615610f5f5760009250505061100e565b600060149054906101000a900460ff1615610f7f5760069250505061100e565b600454421015610f945760019250505061100e565b42600454108015610fa6575060055442105b15610fb65760029250505061100e565b600060159054906101000a900460ff1615610fd65760059250505061100e565b4282108015610fe457508042105b15610ff45760039250505061100e565b804211156110075760049250505061100e565b6007925050505b90565b60055481565b60135481565b60045481565b600b6020528060005260406000206000915090505481565b600080600b60003373ffffffffffffffffffffffffffffffffffffffff1673ffffffffffffffffffffffffffffffffffffffff168152602001908152602001600020541490506000600a60009054906101000a900473ffffffffffffffffffffffffffffffffffffffff1673ffffffffffffffffffffffffffffffffffffffff166370a08231336040518263ffffffff167c0100000000000000000000000000000000000000000000000000000000028152600401808273ffffffffffffffffffffffffffffffffffffffff1673ffffffffffffffffffffffffffffffffffffffff16815260200191505060206040518083038186803b15801561113e57600080fd5b505afa158015611152573d6000803e3d6000fd5b505050506040513d602081101561116857600080fd5b8101908080519060200190929190505050905081151561118757600080fd5b6000811415151561119757600080fd5b80600b60003373ffffffffffffffffffffffffffffffffffffffff1673ffffffffffffffffffffffffffffffffffffffff168152602001908152602001600020819055506111f86111e733611c01565b600e54611e6890919063ffffffff16565b600e8190555061121381600d54611e6890919063ffffffff16565b600d8190555061122f6001600c54611e6890919063ffffffff16565b600c819055505050565b611241611cb4565b5050505050505050565b60065481565b600061126a6101a4600654611e6890919063ffffffff16565b905090565b62ed4e0081565b61127e611e95565b565b6000806000600680600781111561129357fe5b61129b610f26565b60078111156112a657fe5b1415156112b257600080fd5b6000600b60003373ffffffffffffffffffffffffffffffffffffffff1673ffffffffffffffffffffffffffffffffffffffff168152602001908152602001600020541415151561130157600080fd5b60003390506000600b60008373ffffffffffffffffffffffffffffffffffffffff1673ffffffffffffffffffffffffffffffffffffffff1681526020019081526020016000205490506000600d5461136483600954611f1290919063ffffffff16565b81151561136d57fe5b0490506000600b60008573ffffffffffffffffffffffffffffffffffffffff1673ffffffffffffffffffffffffffffffffffffffff16815260200190815260200160002081905550600760009054906101000a900473ffffffffffffffffffffffffffffffffffffffff1673ffffffffffffffffffffffffffffffffffffffff1663a9059cbb84836040518363ffffffff167c0100000000000000000000000000000000000000000000000000000000028152600401808373ffffffffffffffffffffffffffffffffffffffff1673ffffffffffffffffffffffffffffffffffffffff16815260200182815260200192505050602060405180830381600087803b15801561147a57600080fd5b505af115801561148e573d6000803e3d6000fd5b505050506040513d60208110156114a457600080fd5b810190808051906020019092919050505015156114c057600080fd5b6000309050818473ffffffffffffffffffffffffffffffffffffffff168273ffffffffffffffffffffffffffffffffffffffff167fddf252ad1be2c89b69c2b068fc378daa952ba7f163c4a11628f55a4df523b3ef60405160405180910390a48084839750975097505050505050909192565b600080600261154c600185611e6890919063ffffffff16565b81151561155557fe5b04905060008390505b8082101561158a57819050600282838681151561157757fe5b040181151561158257fe5b04915061155e565b8092505050919050565b600d5481565b6115a2611f48565b565b60008060008060038060078111156115b857fe5b6115c0610f26565b60078111156115cb57fe5b1415156115d757600080fd5b6000600b60003373ffffffffffffffffffffffffffffffffffffffff1673ffffffffffffffffffffffffffffffffffffffff168152602001908152602001600020541415151561162657600080fd5b61163533600254600354611b38565b15151561164157600080fd5b6001600f60003373ffffffffffffffffffffffffffffffffffffffff1673ffffffffffffffffffffffffffffffffffffffff168152602001908152602001600020600060025481526020019081526020016000206000600354815260200190815260200160002060006101000a81548160ff0219169083151502179055508515611709576116db6001601054611e6890919063ffffffff16565b6010819055506116fe6116ed33611c01565b601254611e6890919063ffffffff16565b601281905550611749565b61171f6001601154611e6890919063ffffffff16565b60118190555061174261173133611c01565b601354611e6890919063ffffffff16565b6013819055505b6003546002543373ffffffffffffffffffffffffffffffffffffffff167fcc939d87badad2d9cd8b8ad6e88410094ecbf0ff62eab203ccc917c330ee6c0089604051808215151515815260200191505060405180910390a433600254600354888393509450945094509450509193509193565b60006117c6611fd0565b905090565b600080600080600060058060078111156117e157fe5b6117e9610f26565b60078111156117f457fe5b14151561180057600080fd5b6000809054906101000a900473ffffffffffffffffffffffffffffffffffffffff1673ffffffffffffffffffffffffffffffffffffffff163373ffffffffffffffffffffffffffffffffffffffff1614151561185b57600080fd5b61187162ed4e0042611e6890919063ffffffff16565b881115151561187f57600080fd5b42881015151561188e57600080fd5b86600760009054906101000a900473ffffffffffffffffffffffffffffffffffffffff1673ffffffffffffffffffffffffffffffffffffffff166370a08231600860009054906101000a900473ffffffffffffffffffffffffffffffffffffffff166040518263ffffffff167c0100000000000000000000000000000000000000000000000000000000028152600401808273ffffffffffffffffffffffffffffffffffffffff1673ffffffffffffffffffffffffffffffffffffffff16815260200191505060206040518083038186803b15801561196c57600080fd5b505afa158015611980573d6000803e3d6000fd5b505050506040513d602081101561199657600080fd5b8101908080519060200190929190505050101515156119b457600080fd5b87600681905550866001819055506003546002547ffb7765bde31e4a004830eb775ca387e7bd0dd3d88c48f40588cfa732224fa9a28a6119ff6101a48d611e6890919063ffffffff16565b8b60405180848152602001838152602001828152602001935050505060405180910390a360025460035489611a3f6101a48c611e6890919063ffffffff16565b8a95509550955095509550509295509295909350565b600060159054906101000a900460ff1681565b600760009054906101000a900473ffffffffffffffffffffffffffffffffffffffff1681565b60015481565b60006006806007811115611aa457fe5b611aac610f26565b6007811115611ab757fe5b141515611ac357600080fd5b600d54611b1a600b60008673ffffffffffffffffffffffffffffffffffffffff1673ffffffffffffffffffffffffffffffffffffffff16815260200190815260200160002054600954611f1290919063ffffffff16565b811515611b2357fe5b04915050919050565b60025481565b60115481565b6000600f60008573ffffffffffffffffffffffffffffffffffffffff1673ffffffffffffffffffffffffffffffffffffffff1681526020019081526020016000206000848152602001908152602001600020600083815260200190815260200160002060009054906101000a900460ff1690509392505050565b60035481565b600060149054906101000a900460ff1681565b60125481565b6000600654905090565b600860009054906101000a900473ffffffffffffffffffffffffffffffffffffffff1681565b6000611c4b600b60008473ffffffffffffffffffffffffffffffffffffffff1673ffffffffffffffffffffffffffffffffffffffff16815260200190815260200160002054611533565b9050919050565b600060169054906101000a900460ff1681565b600a60009054906101000a900473ffffffffffffffffffffffffffffffffffffffff1681565b600080611c9783611ff9565b818391509150915091565b600e5481565b6101a481565b60105481565b6000806000806000806000806004806007811115611cce57fe5b611cd6610f26565b6007811115611ce157fe5b141515611ced57600080fd5b600060135460125410159050600060035460031490508015611d1657611d1161214e565b611d31565b8115611d3057611d2f611d276117bc565b600154612295565b5b5b6002549a506003549950819850601254975060135496506010549550601154945060015493508115611d86576001600381905550611d7b6001600254611e6890919063ffffffff16565b600281905550611da3565b611d9c6001600354611e6890919063ffffffff16565b6003819055505b6001600060156101000a81548160ff0219169083151502179055506000601281905550600060138190555060006010819055506000601181905550898b7f2b9e4573f56143da9c2ad35b4749151ed1d6139ca8654fc42bb6066f33f5ffc88b8b8b8b8b8b6040518087151515158152602001868152602001858152602001848152602001838152602001828152602001965050505050505060405180910390a38a8a8a8a8a8a8a8a9a509a509a509a509a509a509a509a505050509091929394959697565b6000808284019050838110158015611e805750828110155b1515611e8b57600080fd5b8091505092915050565b6005806007811115611ea357fe5b611eab610f26565b6007811115611eb657fe5b141515611ec257600080fd5b6000611ecc611bd1565b90506000611ed8611251565b90504282108015611ee857508042105b1515611ef357600080fd5b60008060156101000a81548160ff021916908315150217905550505050565b60008082840290506000841480611f335750828482811515611f3057fe5b04145b1515611f3e57600080fd5b8091505092915050565b6005806007811115611f5657fe5b611f5e610f26565b6007811115611f6957fe5b141515611f7557600080fd5b6000611f7f611251565b90506000611f9962ed4e0083611e6890919063ffffffff16565b90504281111515611fa957600080fd5b60008060156101000a81548160ff021916908315150217905550611fcb61214e565b505050565b60008060009054906101000a900473ffffffffffffffffffffffffffffffffffffffff16905090565b6000809054906101000a900473ffffffffffffffffffffffffffffffffffffffff1673ffffffffffffffffffffffffffffffffffffffff163373ffffffffffffffffffffffffffffffffffffffff1614151561205457600080fd5b600073ffffffffffffffffffffffffffffffffffffffff168173ffffffffffffffffffffffffffffffffffffffff161415151561209057600080fd5b8073ffffffffffffffffffffffffffffffffffffffff166000809054906101000a900473ffffffffffffffffffffffffffffffffffffffff1673ffffffffffffffffffffffffffffffffffffffff167f8be0079c531659141344cd1fd0a4f28419497f9722a3daafe3b4186f6b6457e060405160405180910390a3806000806101000a81548173ffffffffffffffffffffffffffffffffffffffff021916908373ffffffffffffffffffffffffffffffffffffffff16021790555050565b600760009054906101000a900473ffffffffffffffffffffffffffffffffffffffff1673ffffffffffffffffffffffffffffffffffffffff166370a08231600860009054906101000a900473ffffffffffffffffffffffffffffffffffffffff166040518263ffffffff167c0100000000000000000000000000000000000000000000000000000000028152600401808273ffffffffffffffffffffffffffffffffffffffff1673ffffffffffffffffffffffffffffffffffffffff16815260200191505060206040518083038186803b15801561222b57600080fd5b505afa15801561223f573d6000803e3d6000fd5b505050506040513d602081101561225557600080fd5b810190808051906020019092919050505060098190555061227830600954612295565b6001600060146101000a81548160ff021916908315150217905550565b606060446040519080825280601f01601f1916602001820160405280156122cb5781602001600182028038833980820191505090505b50905060008090505b604481101561234c5760007f010000000000000000000000000000000000000000000000000000000000000002828281518110151561230f57fe5b9060200101907effffffffffffffffffffffffffffffffffffffffffffffffffffffffffffff1916908160001a90535080806001019150506122d4565b600090505b60048110156123f95763a9059cbb7c0100000000000000000000000000000000000000000000000000000000028160048110151561238b57fe5b1a7f01000000000000000000000000000000000000000000000000000000000000000282828151811015156123bc57fe5b9060200101907effffffffffffffffffffffffffffffffffffffffffffffffffffffffffffff1916908160001a9053508080600101915050612351565b601090505b602481101561249557836c01000000000000000000000000026010820360148110151561242757fe5b1a7f010000000000000000000000000000000000000000000000000000000000000002828281518110151561245857fe5b9060200101907effffffffffffffffffffffffffffffffffffffffffffffffffffffffffffff1916908160001a90535080806001019150506123fe565b602490505b60448110156125255782600102602482036020811015156124b757fe5b1a7f01000000000000000000000000000000000000000000000000000000000000000282828151811015156124e857fe5b9060200101907effffffffffffffffffffffffffffffffffffffffffffffffffffffffffffff1916908160001a905350808060010191505061249a565b600860009054906101000a900473ffffffffffffffffffffffffffffffffffffffff1673ffffffffffffffffffffffffffffffffffffffff1663c6427474600760009054906101000a900473ffffffffffffffffffffffffffffffffffffffff166000856040518463ffffffff167c0100000000000000000000000000000000000000000000000000000000028152600401808473ffffffffffffffffffffffffffffffffffffffff1673ffffffffffffffffffffffffffffffffffffffff16815260200183815260200180602001828103825283818151815260200191508051906020019080838360005b8381101561262c578082015181840152602081019050612611565b50505050905090810190601f1680156126595780820380516001836020036101000a031916815260200191505b50945050505050602060405180830381600087803b15801561267a57600080fd5b505af115801561268e573d6000803e3d6000fd5b505050506040513d60208110156126a457600080fd5b8101908080519060200190929190505050505050505056fea165627a7a723058200250e435a23c83ca6d4fe6a8ef1aa1bf86d65a5e0964cea5450d41848a5e7b6f0029a165627a7a723058201af4222db30a3e6399fc9577a00bab8c19e14dfcc6b47c0b8f8e878c4eab27f30029",
  "source": "pragma solidity >=0.4.15;\n\nimport \"./TokenPoll.sol\";\nimport \"./Ownable.sol\";\n\n// Voting is quadratic\ncontract TokenPollFactory {\n  event TokenPollCreated(address indexed owner, address tokenPoll);\n\n  address public stableCoin;\n\n  constructor (address _stableCoin) public { stableCoin = _stableCoin;  }\n\n  function createTokenPoll() public returns (address owner, address tokenPoll) {\n    TokenPoll tp = new TokenPoll(stableCoin);\n\n    tp.transferOwnership(msg.sender);\n\n    owner = msg.sender;\n    tokenPoll = address(tp);\n\n    emit TokenPollCreated(owner, tokenPoll);\n    return (owner, tokenPoll);\n  }\n}\n",
  "sourcePath": "/home/nick/workspace/TokenPoll/contracts/TokenPollFactory.sol",
  "compiler": {
    "name": "solc",
    "version": "0.5.0+commit.1d4f565a.Emscripten.clang"
  },
  "schemaVersion": "3.0.1",
  "updatedAt": "2019-01-21T17:21:12.547Z",
  "devdoc": {
    "methods": {}
  },
  "userdoc": {
    "methods": {}
  }
}